{
  "contractName": "StubbornApe",
  "abi": [
    {
      "inputs": [],
      "stateMutability": "nonpayable",
      "type": "constructor"
    },
    {
      "anonymous": false,
      "inputs": [
        {
          "indexed": true,
          "internalType": "address",
          "name": "owner",
          "type": "address"
        },
        {
          "indexed": true,
          "internalType": "address",
          "name": "approved",
          "type": "address"
        },
        {
          "indexed": true,
          "internalType": "uint256",
          "name": "tokenId",
          "type": "uint256"
        }
      ],
      "name": "Approval",
      "type": "event"
    },
    {
      "anonymous": false,
      "inputs": [
        {
          "indexed": true,
          "internalType": "address",
          "name": "owner",
          "type": "address"
        },
        {
          "indexed": true,
          "internalType": "address",
          "name": "operator",
          "type": "address"
        },
        {
          "indexed": false,
          "internalType": "bool",
          "name": "approved",
          "type": "bool"
        }
      ],
      "name": "ApprovalForAll",
      "type": "event"
    },
    {
      "anonymous": false,
      "inputs": [
        {
          "indexed": true,
          "internalType": "address",
          "name": "previousOwner",
          "type": "address"
        },
        {
          "indexed": true,
          "internalType": "address",
          "name": "newOwner",
          "type": "address"
        }
      ],
      "name": "OwnershipTransferred",
      "type": "event"
    },
    {
      "anonymous": false,
      "inputs": [
        {
          "indexed": true,
          "internalType": "address",
          "name": "_from",
          "type": "address"
        },
        {
          "indexed": true,
          "internalType": "uint256",
          "name": "_tokenId",
          "type": "uint256"
        }
      ],
      "name": "PublicSaleMint",
      "type": "event"
    },
    {
      "anonymous": false,
      "inputs": [
        {
          "indexed": true,
          "internalType": "address",
          "name": "from",
          "type": "address"
        },
        {
          "indexed": true,
          "internalType": "address",
          "name": "to",
          "type": "address"
        },
        {
          "indexed": true,
          "internalType": "uint256",
          "name": "tokenId",
          "type": "uint256"
        }
      ],
      "name": "Transfer",
      "type": "event"
    },
    {
      "inputs": [],
      "name": "MAX_ITEMS",
      "outputs": [
        {
          "internalType": "uint256",
          "name": "",
          "type": "uint256"
        }
      ],
      "stateMutability": "view",
      "type": "function",
      "constant": true
    },
    {
      "inputs": [],
      "name": "_mintedItems",
      "outputs": [
        {
          "internalType": "uint256",
          "name": "",
          "type": "uint256"
        }
      ],
      "stateMutability": "view",
      "type": "function",
      "constant": true
    },
    {
      "inputs": [
        {
          "internalType": "address",
          "name": "to",
          "type": "address"
        },
        {
          "internalType": "uint256",
          "name": "tokenId",
          "type": "uint256"
        }
      ],
      "name": "approve",
      "outputs": [],
      "stateMutability": "nonpayable",
      "type": "function"
    },
    {
      "inputs": [
        {
          "internalType": "address",
          "name": "owner",
          "type": "address"
        }
      ],
      "name": "balanceOf",
      "outputs": [
        {
          "internalType": "uint256",
          "name": "",
          "type": "uint256"
        }
      ],
      "stateMutability": "view",
      "type": "function",
      "constant": true
    },
    {
      "inputs": [],
      "name": "baseURI",
      "outputs": [
        {
          "internalType": "string",
          "name": "",
          "type": "string"
        }
      ],
      "stateMutability": "view",
      "type": "function",
      "constant": true
    },
    {
      "inputs": [
        {
          "internalType": "uint256",
          "name": "tokenId",
          "type": "uint256"
        }
      ],
      "name": "getApproved",
      "outputs": [
        {
          "internalType": "address",
          "name": "",
          "type": "address"
        }
      ],
      "stateMutability": "view",
      "type": "function",
      "constant": true
    },
    {
      "inputs": [
        {
          "internalType": "address",
          "name": "owner",
          "type": "address"
        },
        {
          "internalType": "address",
          "name": "operator",
          "type": "address"
        }
      ],
      "name": "isApprovedForAll",
      "outputs": [
        {
          "internalType": "bool",
          "name": "",
          "type": "bool"
        }
      ],
      "stateMutability": "view",
      "type": "function",
      "constant": true
    },
    {
      "inputs": [],
      "name": "maxMintAmount",
      "outputs": [
        {
          "internalType": "uint256",
          "name": "",
          "type": "uint256"
        }
      ],
      "stateMutability": "view",
      "type": "function",
      "constant": true
    },
    {
      "inputs": [],
      "name": "name",
      "outputs": [
        {
          "internalType": "string",
          "name": "",
          "type": "string"
        }
      ],
      "stateMutability": "view",
      "type": "function",
      "constant": true
    },
    {
      "inputs": [],
      "name": "notRevealedUri",
      "outputs": [
        {
          "internalType": "string",
          "name": "",
          "type": "string"
        }
      ],
      "stateMutability": "view",
      "type": "function",
      "constant": true
    },
    {
      "inputs": [],
      "name": "owner",
      "outputs": [
        {
          "internalType": "address",
          "name": "",
          "type": "address"
        }
      ],
      "stateMutability": "view",
      "type": "function",
      "constant": true
    },
    {
      "inputs": [
        {
          "internalType": "uint256",
          "name": "tokenId",
          "type": "uint256"
        }
      ],
      "name": "ownerOf",
      "outputs": [
        {
          "internalType": "address",
          "name": "",
          "type": "address"
        }
      ],
      "stateMutability": "view",
      "type": "function",
      "constant": true
    },
    {
      "inputs": [],
      "name": "paused",
      "outputs": [
        {
          "internalType": "bool",
          "name": "",
          "type": "bool"
        }
      ],
      "stateMutability": "view",
      "type": "function",
      "constant": true
    },
    {
      "inputs": [],
      "name": "presaleCost",
      "outputs": [
        {
          "internalType": "uint256",
          "name": "",
          "type": "uint256"
        }
      ],
      "stateMutability": "view",
      "type": "function",
      "constant": true
    },
    {
      "inputs": [],
      "name": "presaleStartTimestamp",
      "outputs": [
        {
          "internalType": "uint256",
          "name": "",
          "type": "uint256"
        }
      ],
      "stateMutability": "view",
      "type": "function",
      "constant": true
    },
    {
      "inputs": [
        {
          "internalType": "address",
          "name": "",
          "type": "address"
        }
      ],
      "name": "presaleWallets",
      "outputs": [
        {
          "internalType": "uint256",
          "name": "",
          "type": "uint256"
        }
      ],
      "stateMutability": "view",
      "type": "function",
      "constant": true
    },
    {
      "inputs": [],
      "name": "publicSaleCost",
      "outputs": [
        {
          "internalType": "uint256",
          "name": "",
          "type": "uint256"
        }
      ],
      "stateMutability": "view",
      "type": "function",
      "constant": true
    },
    {
      "inputs": [],
      "name": "publicSaleStartTimestamp",
      "outputs": [
        {
          "internalType": "uint256",
          "name": "",
          "type": "uint256"
        }
      ],
      "stateMutability": "view",
      "type": "function",
      "constant": true
    },
    {
      "inputs": [],
      "name": "renounceOwnership",
      "outputs": [],
      "stateMutability": "nonpayable",
      "type": "function"
    },
    {
      "inputs": [],
      "name": "revealed",
      "outputs": [
        {
          "internalType": "bool",
          "name": "",
          "type": "bool"
        }
      ],
      "stateMutability": "view",
      "type": "function",
      "constant": true
    },
    {
      "inputs": [
        {
          "internalType": "address",
          "name": "from",
          "type": "address"
        },
        {
          "internalType": "address",
          "name": "to",
          "type": "address"
        },
        {
          "internalType": "uint256",
          "name": "tokenId",
          "type": "uint256"
        }
      ],
      "name": "safeTransferFrom",
      "outputs": [],
      "stateMutability": "nonpayable",
      "type": "function"
    },
    {
      "inputs": [
        {
          "internalType": "address",
          "name": "from",
          "type": "address"
        },
        {
          "internalType": "address",
          "name": "to",
          "type": "address"
        },
        {
          "internalType": "uint256",
          "name": "tokenId",
          "type": "uint256"
        },
        {
          "internalType": "bytes",
          "name": "_data",
          "type": "bytes"
        }
      ],
      "name": "safeTransferFrom",
      "outputs": [],
      "stateMutability": "nonpayable",
      "type": "function"
    },
    {
      "inputs": [
        {
          "internalType": "address",
          "name": "operator",
          "type": "address"
        },
        {
          "internalType": "bool",
          "name": "approved",
          "type": "bool"
        }
      ],
      "name": "setApprovalForAll",
      "outputs": [],
      "stateMutability": "nonpayable",
      "type": "function"
    },
    {
      "inputs": [
        {
          "internalType": "bytes4",
          "name": "interfaceId",
          "type": "bytes4"
        }
      ],
      "name": "supportsInterface",
      "outputs": [
        {
          "internalType": "bool",
          "name": "",
          "type": "bool"
        }
      ],
      "stateMutability": "view",
      "type": "function",
      "constant": true
    },
    {
      "inputs": [],
      "name": "symbol",
      "outputs": [
        {
          "internalType": "string",
          "name": "",
          "type": "string"
        }
      ],
      "stateMutability": "view",
      "type": "function",
      "constant": true
    },
    {
      "inputs": [
        {
          "internalType": "uint256",
          "name": "index",
          "type": "uint256"
        }
      ],
      "name": "tokenByIndex",
      "outputs": [
        {
          "internalType": "uint256",
          "name": "",
          "type": "uint256"
        }
      ],
      "stateMutability": "view",
      "type": "function",
      "constant": true
    },
    {
      "inputs": [
        {
          "internalType": "address",
          "name": "owner",
          "type": "address"
        },
        {
          "internalType": "uint256",
          "name": "index",
          "type": "uint256"
        }
      ],
      "name": "tokenOfOwnerByIndex",
      "outputs": [
        {
          "internalType": "uint256",
          "name": "",
          "type": "uint256"
        }
      ],
      "stateMutability": "view",
      "type": "function",
      "constant": true
    },
    {
      "inputs": [],
      "name": "totalSupply",
      "outputs": [
        {
          "internalType": "uint256",
          "name": "",
          "type": "uint256"
        }
      ],
      "stateMutability": "view",
      "type": "function",
      "constant": true
    },
    {
      "inputs": [
        {
          "internalType": "address",
          "name": "from",
          "type": "address"
        },
        {
          "internalType": "address",
          "name": "to",
          "type": "address"
        },
        {
          "internalType": "uint256",
          "name": "tokenId",
          "type": "uint256"
        }
      ],
      "name": "transferFrom",
      "outputs": [],
      "stateMutability": "nonpayable",
      "type": "function"
    },
    {
      "inputs": [
        {
          "internalType": "address",
          "name": "newOwner",
          "type": "address"
        }
      ],
      "name": "transferOwnership",
      "outputs": [],
      "stateMutability": "nonpayable",
      "type": "function"
    },
    {
      "inputs": [
        {
          "internalType": "address",
          "name": "",
          "type": "address"
        }
      ],
      "name": "whitelisted",
      "outputs": [
        {
          "internalType": "bool",
          "name": "",
          "type": "bool"
        }
      ],
      "stateMutability": "view",
      "type": "function",
      "constant": true
    },
    {
      "inputs": [],
      "name": "presaleMint",
      "outputs": [],
      "stateMutability": "payable",
      "type": "function",
      "payable": true
    },
    {
      "inputs": [],
      "name": "publicSaleMint",
      "outputs": [],
      "stateMutability": "payable",
      "type": "function",
      "payable": true
    },
    {
      "inputs": [
        {
          "internalType": "uint256",
          "name": "_mintAmount",
          "type": "uint256"
        }
      ],
      "name": "ownerMint",
      "outputs": [],
      "stateMutability": "payable",
      "type": "function",
      "payable": true
    },
    {
      "inputs": [
        {
          "internalType": "uint256",
          "name": "tokenId",
          "type": "uint256"
        }
      ],
      "name": "tokenURI",
      "outputs": [
        {
          "internalType": "string",
          "name": "",
          "type": "string"
        }
      ],
      "stateMutability": "view",
      "type": "function",
      "constant": true
    },
    {
      "inputs": [
        {
          "internalType": "bool",
          "name": "_state",
          "type": "bool"
        }
      ],
      "name": "reveal",
      "outputs": [],
      "stateMutability": "nonpayable",
      "type": "function"
    },
    {
      "inputs": [
        {
          "internalType": "string",
          "name": "_notRevealedURI",
          "type": "string"
        }
      ],
      "name": "setNotRevealedURI",
      "outputs": [],
      "stateMutability": "nonpayable",
      "type": "function"
    },
    {
      "inputs": [
        {
          "internalType": "uint256",
          "name": "_startTimestamp",
          "type": "uint256"
        }
      ],
      "name": "setPresaleStartTimestamp",
      "outputs": [],
      "stateMutability": "nonpayable",
      "type": "function"
    },
    {
      "inputs": [
        {
          "internalType": "uint256",
          "name": "_startTimestamp",
          "type": "uint256"
        }
      ],
      "name": "setPublicSaleStartTimestamp",
      "outputs": [],
      "stateMutability": "nonpayable",
      "type": "function"
    },
    {
      "inputs": [
        {
          "internalType": "uint256",
          "name": "_newCost",
          "type": "uint256"
        }
      ],
      "name": "setPresaleCost",
      "outputs": [],
      "stateMutability": "nonpayable",
      "type": "function"
    },
    {
      "inputs": [
        {
          "internalType": "uint256",
          "name": "_newCost",
          "type": "uint256"
        }
      ],
      "name": "setPublicSaleCost",
      "outputs": [],
      "stateMutability": "nonpayable",
      "type": "function"
    },
    {
      "inputs": [
        {
          "internalType": "uint256",
          "name": "_maxItemsPerTx",
          "type": "uint256"
        }
      ],
      "name": "setMaxMintAmount",
      "outputs": [],
      "stateMutability": "nonpayable",
      "type": "function"
    },
    {
      "inputs": [
        {
          "internalType": "string",
          "name": "_newBaseURI",
          "type": "string"
        }
      ],
      "name": "setBaseURI",
      "outputs": [],
      "stateMutability": "nonpayable",
      "type": "function"
    },
    {
      "inputs": [
        {
          "internalType": "bool",
          "name": "_state",
          "type": "bool"
        }
      ],
      "name": "pause",
      "outputs": [],
      "stateMutability": "nonpayable",
      "type": "function"
    },
    {
      "inputs": [
        {
          "internalType": "address",
          "name": "_user",
          "type": "address"
        }
      ],
      "name": "whitelistUser",
      "outputs": [],
      "stateMutability": "nonpayable",
      "type": "function"
    },
    {
      "inputs": [
        {
          "internalType": "address",
          "name": "_user",
          "type": "address"
        }
      ],
      "name": "removeWhitelistUser",
      "outputs": [],
      "stateMutability": "nonpayable",
      "type": "function"
    },
    {
      "inputs": [
        {
          "internalType": "address",
          "name": "_user",
          "type": "address"
        }
      ],
      "name": "getMintedCountByPresaledUser",
      "outputs": [
        {
          "internalType": "uint256",
          "name": "",
          "type": "uint256"
        }
      ],
      "stateMutability": "view",
      "type": "function",
      "constant": true
    },
    {
      "inputs": [
        {
          "internalType": "address",
          "name": "_user",
          "type": "address"
        },
        {
          "internalType": "uint256",
          "name": "_amount",
          "type": "uint256"
        }
      ],
      "name": "removePresaleUser",
      "outputs": [],
      "stateMutability": "nonpayable",
      "type": "function"
    },
    {
      "inputs": [],
      "name": "withdraw",
      "outputs": [],
      "stateMutability": "nonpayable",
      "type": "function"
    }
  ],
  "bytecode": "0x608060405266470de4df820000600c5567011c37937e080000600d556362586120600e5563625abdd0600f55611b586010556000601155600a6012556000601360006101000a81548160ff0219169083151502179055506000601560006101000a81548160ff0219169083151502179055503480156200007e57600080fd5b506040518060400160405280600d81526020017f53747562626f726e2041706573000000000000000000000000000000000000008152506040518060400160405280600581526020017f535455425300000000000000000000000000000000000000000000000000000081525081600090805190602001906200010392919062000358565b5080600190805190602001906200011c92919062000358565b5050506200013f620001336200019960201b60201c565b620001a160201b60201c565b6200016960405180608001604052806051815260200162005aef605191396200026760201b60201c565b6200019360405180608001604052806050815260200162005b40605091396200031260201b60201c565b620004f0565b600033905090565b6000600a60009054906101000a900473ffffffffffffffffffffffffffffffffffffffff16905081600a60006101000a81548173ffffffffffffffffffffffffffffffffffffffff021916908373ffffffffffffffffffffffffffffffffffffffff1602179055508173ffffffffffffffffffffffffffffffffffffffff168173ffffffffffffffffffffffffffffffffffffffff167f8be0079c531659141344cd1fd0a4f28419497f9722a3daafe3b4186f6b6457e060405160405180910390a35050565b620002776200019960201b60201c565b73ffffffffffffffffffffffffffffffffffffffff166200029d6200032e60201b60201c565b73ffffffffffffffffffffffffffffffffffffffff1614620002f6576040517f08c379a0000000000000000000000000000000000000000000000000000000008152600401620002ed906200042f565b60405180910390fd5b80600b90805190602001906200030e92919062000358565b5050565b80601490805190602001906200032a92919062000358565b5050565b6000600a60009054906101000a900473ffffffffffffffffffffffffffffffffffffffff16905090565b828054620003669062000462565b90600052602060002090601f0160209004810192826200038a5760008555620003d6565b82601f10620003a557805160ff1916838001178555620003d6565b82800160010185558215620003d6579182015b82811115620003d5578251825591602001919060010190620003b8565b5b509050620003e59190620003e9565b5090565b5b8082111562000404576000816000905550600101620003ea565b5090565b60006200041760208362000451565b91506200042482620004c7565b602082019050919050565b600060208201905081810360008301526200044a8162000408565b9050919050565b600082825260208201905092915050565b600060028204905060018216806200047b57607f821691505b6020821081141562000492576200049162000498565b5b50919050565b7f4e487b7100000000000000000000000000000000000000000000000000000000600052602260045260246000fd5b7f4f776e61626c653a2063616c6c6572206973206e6f7420746865206f776e6572600082015250565b6155ef80620005006000396000f3fe6080604052600436106102ae5760003560e01c806357d4c4ee116101755780639bb42913116100dc578063d936547e11610095578063e985e9c51161006f578063e985e9c514610a6c578063f19e75d414610aa9578063f2c4ce1e14610ac5578063f2fde38b14610aee576102ae565b8063d936547e146109dd578063e3bc776214610a1a578063e8fee10514610a43576102ae565b80639bb42913146108dc578063a22cb46514610919578063b88d4fde14610942578063c87b56dd1461096b578063d2eb86ee146109a8578063d7822c99146109b2576102ae565b8063715018a61161012e578063715018a6146107f45780638da5cb5b1461080b5780638dbb7c06146108365780638fdcf9421461085f578063940cd05b1461088857806395d89b41146108b1576102ae565b806357d4c4ee146106ef57806359533d6c1461071a5780635c975abb146107245780636352211e1461074f5780636c0360eb1461078c57806370a08231146107b7576102ae565b806330b2264e116102195780634a4c560d116101d25780634a4c560d146105e15780634ea37fec1461060a5780634f6ccce7146106355780634fb12c3914610672578063518302271461069b57806355f804b3146106c6576102ae565b806330b2264e146104e557806330cc7ae0146105225780633ccfd60b1461054b5780633dff96011461056257806342842e0e1461058d578063453afb0f146105b6576102ae565b8063095ea7b31161026b578063095ea7b3146103d557806318160ddd146103fe578063239c70ae1461042957806323b872dd146104545780632a23d07d1461047d5780632f745c59146104a8576102ae565b806301ffc9a7146102b357806302329a29146102f057806306fdde0314610319578063081812fc14610344578063081c8c4414610381578063088a4ed0146103ac575b600080fd5b3480156102bf57600080fd5b506102da60048036038101906102d59190613ede565b610b17565b6040516102e79190614589565b60405180910390f35b3480156102fc57600080fd5b5061031760048036038101906103129190613eb1565b610b91565b005b34801561032557600080fd5b5061032e610c2a565b60405161033b91906145a4565b60405180910390f35b34801561035057600080fd5b5061036b60048036038101906103669190613f81565b610cbc565b6040516103789190614522565b60405180910390f35b34801561038d57600080fd5b50610396610d41565b6040516103a391906145a4565b60405180910390f35b3480156103b857600080fd5b506103d360048036038101906103ce9190613f81565b610dcf565b005b3480156103e157600080fd5b506103fc60048036038101906103f79190613e71565b610e55565b005b34801561040a57600080fd5b50610413610f6d565b6040516104209190614986565b60405180910390f35b34801561043557600080fd5b5061043e610f7a565b60405161044b9190614986565b60405180910390f35b34801561046057600080fd5b5061047b60048036038101906104769190613d5b565b610f80565b005b34801561048957600080fd5b50610492610fe0565b60405161049f9190614986565b60405180910390f35b3480156104b457600080fd5b506104cf60048036038101906104ca9190613e71565b610fe6565b6040516104dc9190614986565b60405180910390f35b3480156104f157600080fd5b5061050c60048036038101906105079190613cee565b61108b565b6040516105199190614986565b60405180910390f35b34801561052e57600080fd5b5061054960048036038101906105449190613cee565b6110a3565b005b34801561055757600080fd5b5061056061117a565b005b34801561056e57600080fd5b506105776112ac565b6040516105849190614986565b60405180910390f35b34801561059957600080fd5b506105b460048036038101906105af9190613d5b565b6112b2565b005b3480156105c257600080fd5b506105cb6112d2565b6040516105d89190614986565b60405180910390f35b3480156105ed57600080fd5b5061060860048036038101906106039190613cee565b6112d8565b005b34801561061657600080fd5b5061061f6113af565b60405161062c9190614986565b60405180910390f35b34801561064157600080fd5b5061065c60048036038101906106579190613f81565b6113b5565b6040516106699190614986565b60405180910390f35b34801561067e57600080fd5b5061069960048036038101906106949190613e71565b611426565b005b3480156106a757600080fd5b506106b06114ea565b6040516106bd9190614589565b60405180910390f35b3480156106d257600080fd5b506106ed60048036038101906106e89190613f38565b6114fd565b005b3480156106fb57600080fd5b50610704611593565b6040516107119190614986565b60405180910390f35b610722611599565b005b34801561073057600080fd5b506107396119bc565b6040516107469190614589565b60405180910390f35b34801561075b57600080fd5b5061077660048036038101906107719190613f81565b6119cf565b6040516107839190614522565b60405180910390f35b34801561079857600080fd5b506107a1611a81565b6040516107ae91906145a4565b60405180910390f35b3480156107c357600080fd5b506107de60048036038101906107d99190613cee565b611b0f565b6040516107eb9190614986565b60405180910390f35b34801561080057600080fd5b50610809611bc7565b005b34801561081757600080fd5b50610820611c4f565b60405161082d9190614522565b60405180910390f35b34801561084257600080fd5b5061085d60048036038101906108589190613f81565b611c79565b005b34801561086b57600080fd5b5061088660048036038101906108819190613f81565b611cff565b005b34801561089457600080fd5b506108af60048036038101906108aa9190613eb1565b611d85565b005b3480156108bd57600080fd5b506108c6611e1e565b6040516108d391906145a4565b60405180910390f35b3480156108e857600080fd5b5061090360048036038101906108fe9190613cee565b611eb0565b6040516109109190614986565b60405180910390f35b34801561092557600080fd5b50610940600480360381019061093b9190613e31565b611ef9565b005b34801561094e57600080fd5b5061096960048036038101906109649190613dae565b611f0f565b005b34801561097757600080fd5b50610992600480360381019061098d9190613f81565b611f71565b60405161099f91906145a4565b60405180910390f35b6109b06120c7565b005b3480156109be57600080fd5b506109c761237f565b6040516109d49190614986565b60405180910390f35b3480156109e957600080fd5b50610a0460048036038101906109ff9190613cee565b612385565b604051610a119190614589565b60405180910390f35b348015610a2657600080fd5b50610a416004803603810190610a3c9190613f81565b6123a5565b005b348015610a4f57600080fd5b50610a6a6004803603810190610a659190613f81565b61242b565b005b348015610a7857600080fd5b50610a936004803603810190610a8e9190613d1b565b6124b1565b604051610aa09190614589565b60405180910390f35b610ac36004803603810190610abe9190613f81565b612545565b005b348015610ad157600080fd5b50610aec6004803603810190610ae79190613f38565b61274d565b005b348015610afa57600080fd5b50610b156004803603810190610b109190613cee565b612767565b005b60007f780e9d63000000000000000000000000000000000000000000000000000000007bffffffffffffffffffffffffffffffffffffffffffffffffffffffff1916827bffffffffffffffffffffffffffffffffffffffffffffffffffffffff19161480610b8a5750610b898261285f565b5b9050919050565b610b99612941565b73ffffffffffffffffffffffffffffffffffffffff16610bb7611c4f565b73ffffffffffffffffffffffffffffffffffffffff1614610c0d576040517f08c379a0000000000000000000000000000000000000000000000000000000008152600401610c0490614826565b60405180910390fd5b80601360006101000a81548160ff02191690831515021790555050565b606060008054610c3990614be7565b80601f0160208091040260200160405190810160405280929190818152602001828054610c6590614be7565b8015610cb25780601f10610c8757610100808354040283529160200191610cb2565b820191906000526020600020905b815481529060010190602001808311610c9557829003601f168201915b5050505050905090565b6000610cc782612949565b610d06576040517f08c379a0000000000000000000000000000000000000000000000000000000008152600401610cfd906147e6565b60405180910390fd5b6004600083815260200190815260200160002060009054906101000a900473ffffffffffffffffffffffffffffffffffffffff169050919050565b60148054610d4e90614be7565b80601f0160208091040260200160405190810160405280929190818152602001828054610d7a90614be7565b8015610dc75780601f10610d9c57610100808354040283529160200191610dc7565b820191906000526020600020905b815481529060010190602001808311610daa57829003601f168201915b505050505081565b610dd7612941565b73ffffffffffffffffffffffffffffffffffffffff16610df5611c4f565b73ffffffffffffffffffffffffffffffffffffffff1614610e4b576040517f08c379a0000000000000000000000000000000000000000000000000000000008152600401610e4290614826565b60405180910390fd5b8060128190555050565b6000610e60826119cf565b90508073ffffffffffffffffffffffffffffffffffffffff168373ffffffffffffffffffffffffffffffffffffffff161415610ed1576040517f08c379a0000000000000000000000000000000000000000000000000000000008152600401610ec890614886565b60405180910390fd5b8073ffffffffffffffffffffffffffffffffffffffff16610ef0612941565b73ffffffffffffffffffffffffffffffffffffffff161480610f1f5750610f1e81610f19612941565b6124b1565b5b610f5e576040517f08c379a0000000000000000000000000000000000000000000000000000000008152600401610f5590614746565b60405180910390fd5b610f6883836129b5565b505050565b6000600880549050905090565b60125481565b610f91610f8b612941565b82612a6e565b610fd0576040517f08c379a0000000000000000000000000000000000000000000000000000000008152600401610fc7906148c6565b60405180910390fd5b610fdb838383612b4c565b505050565b600c5481565b6000610ff183611b0f565b8210611032576040517f08c379a0000000000000000000000000000000000000000000000000000000008152600401611029906145e6565b60405180910390fd5b600660008473ffffffffffffffffffffffffffffffffffffffff1673ffffffffffffffffffffffffffffffffffffffff168152602001908152602001600020600083815260200190815260200160002054905092915050565b60176020528060005260406000206000915090505481565b6110ab612941565b73ffffffffffffffffffffffffffffffffffffffff166110c9611c4f565b73ffffffffffffffffffffffffffffffffffffffff161461111f576040517f08c379a000000000000000000000000000000000000000000000000000000000815260040161111690614826565b60405180910390fd5b6000601660008373ffffffffffffffffffffffffffffffffffffffff1673ffffffffffffffffffffffffffffffffffffffff16815260200190815260200160002060006101000a81548160ff02191690831515021790555050565b611182612941565b73ffffffffffffffffffffffffffffffffffffffff166111a0611c4f565b73ffffffffffffffffffffffffffffffffffffffff16146111f6576040517f08c379a00000000000000000000000000000000000000000000000000000000081526004016111ed90614826565b60405180910390fd5b6000611200611c4f565b73ffffffffffffffffffffffffffffffffffffffff16476040516112239061450d565b60006040518083038185875af1925050503d8060008114611260576040519150601f19603f3d011682016040523d82523d6000602084013e611265565b606091505b50509050806112a9576040517f08c379a00000000000000000000000000000000000000000000000000000000081526004016112a0906145c6565b60405180910390fd5b50565b60115481565b6112cd83838360405180602001604052806000815250611f0f565b505050565b600d5481565b6112e0612941565b73ffffffffffffffffffffffffffffffffffffffff166112fe611c4f565b73ffffffffffffffffffffffffffffffffffffffff1614611354576040517f08c379a000000000000000000000000000000000000000000000000000000000815260040161134b90614826565b60405180910390fd5b6001601660008373ffffffffffffffffffffffffffffffffffffffff1673ffffffffffffffffffffffffffffffffffffffff16815260200190815260200160002060006101000a81548160ff02191690831515021790555050565b600e5481565b60006113bf610f6d565b8210611400576040517f08c379a00000000000000000000000000000000000000000000000000000000081526004016113f790614906565b60405180910390fd5b6008828154811061141457611413614d80565b5b90600052602060002001549050919050565b61142e612941565b73ffffffffffffffffffffffffffffffffffffffff1661144c611c4f565b73ffffffffffffffffffffffffffffffffffffffff16146114a2576040517f08c379a000000000000000000000000000000000000000000000000000000000815260040161149990614826565b60405180910390fd5b80601760008473ffffffffffffffffffffffffffffffffffffffff1673ffffffffffffffffffffffffffffffffffffffff168152602001908152602001600020819055505050565b601560009054906101000a900460ff1681565b611505612941565b73ffffffffffffffffffffffffffffffffffffffff16611523611c4f565b73ffffffffffffffffffffffffffffffffffffffff1614611579576040517f08c379a000000000000000000000000000000000000000000000000000000000815260040161157090614826565b60405180910390fd5b80600b908051906020019061158f929190613b02565b5050565b60105481565b601360009054906101000a900460ff16156115e9576040517f08c379a00000000000000000000000000000000000000000000000000000000081526004016115e090614686565b60405180910390fd5b600e5442101561162e576040517f08c379a0000000000000000000000000000000000000000000000000000000008152600401611625906148e6565b60405180910390fd5b600f54421115611673576040517f08c379a000000000000000000000000000000000000000000000000000000000815260040161166a90614726565b60405180910390fd5b6000600c54346116839190614c93565b90506000600c54346116959190614acc565b9050600082146116da576040517f08c379a00000000000000000000000000000000000000000000000000000000081526004016116d190614806565b60405180910390fd5b6010546116f282601154612da890919063ffffffff16565b1115611733576040517f08c379a000000000000000000000000000000000000000000000000000000000815260040161172a906147a6565b60405180910390fd5b601254811115611778576040517f08c379a000000000000000000000000000000000000000000000000000000000815260040161176f90614666565b60405180910390fd5b60011515601660003373ffffffffffffffffffffffffffffffffffffffff1673ffffffffffffffffffffffffffffffffffffffff16815260200190815260200160002060009054906101000a900460ff1615151461180b576040517f08c379a000000000000000000000000000000000000000000000000000000000815260040161180290614966565b60405180910390fd5b600a601760003373ffffffffffffffffffffffffffffffffffffffff1673ffffffffffffffffffffffffffffffffffffffff16815260200190815260200160002054111561188e576040517f08c379a0000000000000000000000000000000000000000000000000000000008152600401611885906148a6565b60405180910390fd5b611896611c4f565b73ffffffffffffffffffffffffffffffffffffffff163373ffffffffffffffffffffffffffffffffffffffff16146119b85760005b8181101561196257600060016011546118e49190614a76565b90506010546011541061192c576040517f08c379a000000000000000000000000000000000000000000000000000000000815260040161192390614946565b60405180910390fd5b6119363382612dbe565b6011600081548092919061194990614c4a565b919050555050808061195a90614c4a565b9150506118cb565b506119b73382601760003373ffffffffffffffffffffffffffffffffffffffff1673ffffffffffffffffffffffffffffffffffffffff168152602001908152602001600020546119b29190614a76565b612ddc565b5b5050565b601360009054906101000a900460ff1681565b6000806002600084815260200190815260200160002060009054906101000a900473ffffffffffffffffffffffffffffffffffffffff169050600073ffffffffffffffffffffffffffffffffffffffff168173ffffffffffffffffffffffffffffffffffffffff161415611a78576040517f08c379a0000000000000000000000000000000000000000000000000000000008152600401611a6f90614786565b60405180910390fd5b80915050919050565b600b8054611a8e90614be7565b80601f0160208091040260200160405190810160405280929190818152602001828054611aba90614be7565b8015611b075780601f10611adc57610100808354040283529160200191611b07565b820191906000526020600020905b815481529060010190602001808311611aea57829003601f168201915b505050505081565b60008073ffffffffffffffffffffffffffffffffffffffff168273ffffffffffffffffffffffffffffffffffffffff161415611b80576040517f08c379a0000000000000000000000000000000000000000000000000000000008152600401611b7790614766565b60405180910390fd5b600360008373ffffffffffffffffffffffffffffffffffffffff1673ffffffffffffffffffffffffffffffffffffffff168152602001908152602001600020549050919050565b611bcf612941565b73ffffffffffffffffffffffffffffffffffffffff16611bed611c4f565b73ffffffffffffffffffffffffffffffffffffffff1614611c43576040517f08c379a0000000000000000000000000000000000000000000000000000000008152600401611c3a90614826565b60405180910390fd5b611c4d6000612e24565b565b6000600a60009054906101000a900473ffffffffffffffffffffffffffffffffffffffff16905090565b611c81612941565b73ffffffffffffffffffffffffffffffffffffffff16611c9f611c4f565b73ffffffffffffffffffffffffffffffffffffffff1614611cf5576040517f08c379a0000000000000000000000000000000000000000000000000000000008152600401611cec90614826565b60405180910390fd5b80600d8190555050565b611d07612941565b73ffffffffffffffffffffffffffffffffffffffff16611d25611c4f565b73ffffffffffffffffffffffffffffffffffffffff1614611d7b576040517f08c379a0000000000000000000000000000000000000000000000000000000008152600401611d7290614826565b60405180910390fd5b80600c8190555050565b611d8d612941565b73ffffffffffffffffffffffffffffffffffffffff16611dab611c4f565b73ffffffffffffffffffffffffffffffffffffffff1614611e01576040517f08c379a0000000000000000000000000000000000000000000000000000000008152600401611df890614826565b60405180910390fd5b80601560006101000a81548160ff02191690831515021790555050565b606060018054611e2d90614be7565b80601f0160208091040260200160405190810160405280929190818152602001828054611e5990614be7565b8015611ea65780601f10611e7b57610100808354040283529160200191611ea6565b820191906000526020600020905b815481529060010190602001808311611e8957829003601f168201915b5050505050905090565b6000601760008373ffffffffffffffffffffffffffffffffffffffff1673ffffffffffffffffffffffffffffffffffffffff168152602001908152602001600020549050919050565b611f0b611f04612941565b8383612eea565b5050565b611f20611f1a612941565b83612a6e565b611f5f576040517f08c379a0000000000000000000000000000000000000000000000000000000008152600401611f56906148c6565b60405180910390fd5b611f6b84848484613057565b50505050565b6060611f7c82612949565b611fbb576040517f08c379a0000000000000000000000000000000000000000000000000000000008152600401611fb290614866565b60405180910390fd5b60001515601560009054906101000a900460ff16151514156120695760148054611fe490614be7565b80601f016020809104026020016040519081016040528092919081815260200182805461201090614be7565b801561205d5780601f106120325761010080835404028352916020019161205d565b820191906000526020600020905b81548152906001019060200180831161204057829003601f168201915b505050505090506120c2565b60006120736130b3565b9050600081511161209357604051806020016040528060008152506120be565b8061209d84613145565b6040516020016120ae9291906144de565b6040516020818303038152906040525b9150505b919050565b601360009054906101000a900460ff1615612117576040517f08c379a000000000000000000000000000000000000000000000000000000000815260040161210e90614926565b60405180910390fd5b600f5442101561215c576040517f08c379a0000000000000000000000000000000000000000000000000000000008152600401612153906146e6565b60405180910390fd5b6000600d543461216c9190614c93565b90506000600d543461217e9190614acc565b9050600082146121c3576040517f08c379a00000000000000000000000000000000000000000000000000000000081526004016121ba90614806565b60405180910390fd5b6010546121db82601154612da890919063ffffffff16565b111561221c576040517f08c379a0000000000000000000000000000000000000000000000000000000008152600401612213906147a6565b60405180910390fd5b601254811115612261576040517f08c379a000000000000000000000000000000000000000000000000000000000815260040161225890614666565b60405180910390fd5b612269611c4f565b73ffffffffffffffffffffffffffffffffffffffff163373ffffffffffffffffffffffffffffffffffffffff161461237b5760005b8181101561237957600060016011546122b79190614a76565b9050601054601154106122ff576040517f08c379a00000000000000000000000000000000000000000000000000000000081526004016122f690614946565b60405180910390fd5b6123093382612dbe565b803373ffffffffffffffffffffffffffffffffffffffff167f239739eec2dbaccb604ff1de6462a5eccd5f3148924696dd88f04d636ff582b560405160405180910390a36011600081548092919061236090614c4a565b919050555050808061237190614c4a565b91505061229e565b505b5050565b600f5481565b60166020528060005260406000206000915054906101000a900460ff1681565b6123ad612941565b73ffffffffffffffffffffffffffffffffffffffff166123cb611c4f565b73ffffffffffffffffffffffffffffffffffffffff1614612421576040517f08c379a000000000000000000000000000000000000000000000000000000000815260040161241890614826565b60405180910390fd5b80600e8190555050565b612433612941565b73ffffffffffffffffffffffffffffffffffffffff16612451611c4f565b73ffffffffffffffffffffffffffffffffffffffff16146124a7576040517f08c379a000000000000000000000000000000000000000000000000000000000815260040161249e90614826565b60405180910390fd5b80600f8190555050565b6000600560008473ffffffffffffffffffffffffffffffffffffffff1673ffffffffffffffffffffffffffffffffffffffff16815260200190815260200160002060008373ffffffffffffffffffffffffffffffffffffffff1673ffffffffffffffffffffffffffffffffffffffff16815260200190815260200160002060009054906101000a900460ff16905092915050565b61254d612941565b73ffffffffffffffffffffffffffffffffffffffff1661256b611c4f565b73ffffffffffffffffffffffffffffffffffffffff16146125c1576040517f08c379a00000000000000000000000000000000000000000000000000000000081526004016125b890614826565b60405180910390fd5b601360009054906101000a900460ff1615612611576040517f08c379a000000000000000000000000000000000000000000000000000000000815260040161260890614926565b60405180910390fd5b60105461262982601154612da890919063ffffffff16565b111561266a576040517f08c379a0000000000000000000000000000000000000000000000000000000008152600401612661906147a6565b60405180910390fd5b6012548111156126af576040517f08c379a00000000000000000000000000000000000000000000000000000000081526004016126a690614666565b60405180910390fd5b60005b8181101561274957600060016011546126cb9190614a76565b905060105460115410612713576040517f08c379a000000000000000000000000000000000000000000000000000000000815260040161270a90614946565b60405180910390fd5b61271d3382612dbe565b6011600081548092919061273090614c4a565b919050555050808061274190614c4a565b9150506126b2565b5050565b8060149080519060200190612763929190613b02565b5050565b61276f612941565b73ffffffffffffffffffffffffffffffffffffffff1661278d611c4f565b73ffffffffffffffffffffffffffffffffffffffff16146127e3576040517f08c379a00000000000000000000000000000000000000000000000000000000081526004016127da90614826565b60405180910390fd5b600073ffffffffffffffffffffffffffffffffffffffff168173ffffffffffffffffffffffffffffffffffffffff161415612853576040517f08c379a000000000000000000000000000000000000000000000000000000000815260040161284a90614626565b60405180910390fd5b61285c81612e24565b50565b60007f80ac58cd000000000000000000000000000000000000000000000000000000007bffffffffffffffffffffffffffffffffffffffffffffffffffffffff1916827bffffffffffffffffffffffffffffffffffffffffffffffffffffffff1916148061292a57507f5b5e139f000000000000000000000000000000000000000000000000000000007bffffffffffffffffffffffffffffffffffffffffffffffffffffffff1916827bffffffffffffffffffffffffffffffffffffffffffffffffffffffff1916145b8061293a5750612939826132a6565b5b9050919050565b600033905090565b60008073ffffffffffffffffffffffffffffffffffffffff166002600084815260200190815260200160002060009054906101000a900473ffffffffffffffffffffffffffffffffffffffff1673ffffffffffffffffffffffffffffffffffffffff1614159050919050565b816004600083815260200190815260200160002060006101000a81548173ffffffffffffffffffffffffffffffffffffffff021916908373ffffffffffffffffffffffffffffffffffffffff160217905550808273ffffffffffffffffffffffffffffffffffffffff16612a28836119cf565b73ffffffffffffffffffffffffffffffffffffffff167f8c5be1e5ebec7d5bd14f71427d1e84f3dd0314c0f7b2291e5b200ac8c7c3b92560405160405180910390a45050565b6000612a7982612949565b612ab8576040517f08c379a0000000000000000000000000000000000000000000000000000000008152600401612aaf90614706565b60405180910390fd5b6000612ac3836119cf565b90508073ffffffffffffffffffffffffffffffffffffffff168473ffffffffffffffffffffffffffffffffffffffff161480612b3257508373ffffffffffffffffffffffffffffffffffffffff16612b1a84610cbc565b73ffffffffffffffffffffffffffffffffffffffff16145b80612b435750612b4281856124b1565b5b91505092915050565b8273ffffffffffffffffffffffffffffffffffffffff16612b6c826119cf565b73ffffffffffffffffffffffffffffffffffffffff1614612bc2576040517f08c379a0000000000000000000000000000000000000000000000000000000008152600401612bb990614846565b60405180910390fd5b600073ffffffffffffffffffffffffffffffffffffffff168273ffffffffffffffffffffffffffffffffffffffff161415612c32576040517f08c379a0000000000000000000000000000000000000000000000000000000008152600401612c29906146a6565b60405180910390fd5b612c3d838383613310565b612c486000826129b5565b6001600360008573ffffffffffffffffffffffffffffffffffffffff1673ffffffffffffffffffffffffffffffffffffffff1681526020019081526020016000206000828254612c989190614afd565b925050819055506001600360008473ffffffffffffffffffffffffffffffffffffffff1673ffffffffffffffffffffffffffffffffffffffff1681526020019081526020016000206000828254612cef9190614a76565b92505081905550816002600083815260200190815260200160002060006101000a81548173ffffffffffffffffffffffffffffffffffffffff021916908373ffffffffffffffffffffffffffffffffffffffff160217905550808273ffffffffffffffffffffffffffffffffffffffff168473ffffffffffffffffffffffffffffffffffffffff167fddf252ad1be2c89b69c2b068fc378daa952ba7f163c4a11628f55a4df523b3ef60405160405180910390a4505050565b60008183612db69190614a76565b905092915050565b612dd8828260405180602001604052806000815250613424565b5050565b80601760008473ffffffffffffffffffffffffffffffffffffffff1673ffffffffffffffffffffffffffffffffffffffff168152602001908152602001600020819055505050565b6000600a60009054906101000a900473ffffffffffffffffffffffffffffffffffffffff16905081600a60006101000a81548173ffffffffffffffffffffffffffffffffffffffff021916908373ffffffffffffffffffffffffffffffffffffffff1602179055508173ffffffffffffffffffffffffffffffffffffffff168173ffffffffffffffffffffffffffffffffffffffff167f8be0079c531659141344cd1fd0a4f28419497f9722a3daafe3b4186f6b6457e060405160405180910390a35050565b8173ffffffffffffffffffffffffffffffffffffffff168373ffffffffffffffffffffffffffffffffffffffff161415612f59576040517f08c379a0000000000000000000000000000000000000000000000000000000008152600401612f50906146c6565b60405180910390fd5b80600560008573ffffffffffffffffffffffffffffffffffffffff1673ffffffffffffffffffffffffffffffffffffffff16815260200190815260200160002060008473ffffffffffffffffffffffffffffffffffffffff1673ffffffffffffffffffffffffffffffffffffffff16815260200190815260200160002060006101000a81548160ff0219169083151502179055508173ffffffffffffffffffffffffffffffffffffffff168373ffffffffffffffffffffffffffffffffffffffff167f17307eab39ab6107e8899845ad3d59bd9653f200f220920489ca2b5937696c318360405161304a9190614589565b60405180910390a3505050565b613062848484612b4c565b61306e8484848461347f565b6130ad576040517f08c379a00000000000000000000000000000000000000000000000000000000081526004016130a490614606565b60405180910390fd5b50505050565b6060600b80546130c290614be7565b80601f01602080910402602001604051908101604052809291908181526020018280546130ee90614be7565b801561313b5780601f106131105761010080835404028352916020019161313b565b820191906000526020600020905b81548152906001019060200180831161311e57829003601f168201915b5050505050905090565b6060600082141561318d576040518060400160405280600181526020017f300000000000000000000000000000000000000000000000000000000000000081525090506132a1565b600082905060005b600082146131bf5780806131a890614c4a565b915050600a826131b89190614acc565b9150613195565b60008167ffffffffffffffff8111156131db576131da614daf565b5b6040519080825280601f01601f19166020018201604052801561320d5781602001600182028036833780820191505090505b5090505b6000851461329a576001826132269190614afd565b9150600a856132359190614c93565b60306132419190614a76565b60f81b81838151811061325757613256614d80565b5b60200101907effffffffffffffffffffffffffffffffffffffffffffffffffffffffffffff1916908160001a905350600a856132939190614acc565b9450613211565b8093505050505b919050565b60007f01ffc9a7000000000000000000000000000000000000000000000000000000007bffffffffffffffffffffffffffffffffffffffffffffffffffffffff1916827bffffffffffffffffffffffffffffffffffffffffffffffffffffffff1916149050919050565b61331b838383613616565b600073ffffffffffffffffffffffffffffffffffffffff168373ffffffffffffffffffffffffffffffffffffffff16141561335e576133598161361b565b61339d565b8173ffffffffffffffffffffffffffffffffffffffff168373ffffffffffffffffffffffffffffffffffffffff161461339c5761339b8382613664565b5b5b600073ffffffffffffffffffffffffffffffffffffffff168273ffffffffffffffffffffffffffffffffffffffff1614156133e0576133db816137d1565b61341f565b8273ffffffffffffffffffffffffffffffffffffffff168273ffffffffffffffffffffffffffffffffffffffff161461341e5761341d82826138a2565b5b5b505050565b61342e8383613921565b61343b600084848461347f565b61347a576040517f08c379a000000000000000000000000000000000000000000000000000000000815260040161347190614606565b60405180910390fd5b505050565b60006134a08473ffffffffffffffffffffffffffffffffffffffff16613aef565b15613609578373ffffffffffffffffffffffffffffffffffffffff1663150b7a026134c9612941565b8786866040518563ffffffff1660e01b81526004016134eb949392919061453d565b602060405180830381600087803b15801561350557600080fd5b505af192505050801561353657506040513d601f19601f820116820180604052508101906135339190613f0b565b60015b6135b9573d8060008114613566576040519150601f19603f3d011682016040523d82523d6000602084013e61356b565b606091505b506000815114156135b1576040517f08c379a00000000000000000000000000000000000000000000000000000000081526004016135a890614606565b60405180910390fd5b805181602001fd5b63150b7a0260e01b7bffffffffffffffffffffffffffffffffffffffffffffffffffffffff1916817bffffffffffffffffffffffffffffffffffffffffffffffffffffffff19161491505061360e565b600190505b949350505050565b505050565b6008805490506009600083815260200190815260200160002081905550600881908060018154018082558091505060019003906000526020600020016000909190919091505550565b6000600161367184611b0f565b61367b9190614afd565b9050600060076000848152602001908152602001600020549050818114613760576000600660008673ffffffffffffffffffffffffffffffffffffffff1673ffffffffffffffffffffffffffffffffffffffff168152602001908152602001600020600084815260200190815260200160002054905080600660008773ffffffffffffffffffffffffffffffffffffffff1673ffffffffffffffffffffffffffffffffffffffff168152602001908152602001600020600084815260200190815260200160002081905550816007600083815260200190815260200160002081905550505b6007600084815260200190815260200160002060009055600660008573ffffffffffffffffffffffffffffffffffffffff1673ffffffffffffffffffffffffffffffffffffffff16815260200190815260200160002060008381526020019081526020016000206000905550505050565b600060016008805490506137e59190614afd565b905060006009600084815260200190815260200160002054905060006008838154811061381557613814614d80565b5b90600052602060002001549050806008838154811061383757613836614d80565b5b90600052602060002001819055508160096000838152602001908152602001600020819055506009600085815260200190815260200160002060009055600880548061388657613885614d51565b5b6001900381819060005260206000200160009055905550505050565b60006138ad83611b0f565b905081600660008573ffffffffffffffffffffffffffffffffffffffff1673ffffffffffffffffffffffffffffffffffffffff168152602001908152602001600020600083815260200190815260200160002081905550806007600084815260200190815260200160002081905550505050565b600073ffffffffffffffffffffffffffffffffffffffff168273ffffffffffffffffffffffffffffffffffffffff161415613991576040517f08c379a0000000000000000000000000000000000000000000000000000000008152600401613988906147c6565b60405180910390fd5b61399a81612949565b156139da576040517f08c379a00000000000000000000000000000000000000000000000000000000081526004016139d190614646565b60405180910390fd5b6139e660008383613310565b6001600360008473ffffffffffffffffffffffffffffffffffffffff1673ffffffffffffffffffffffffffffffffffffffff1681526020019081526020016000206000828254613a369190614a76565b92505081905550816002600083815260200190815260200160002060006101000a81548173ffffffffffffffffffffffffffffffffffffffff021916908373ffffffffffffffffffffffffffffffffffffffff160217905550808273ffffffffffffffffffffffffffffffffffffffff16600073ffffffffffffffffffffffffffffffffffffffff167fddf252ad1be2c89b69c2b068fc378daa952ba7f163c4a11628f55a4df523b3ef60405160405180910390a45050565b600080823b905060008111915050919050565b828054613b0e90614be7565b90600052602060002090601f016020900481019282613b305760008555613b77565b82601f10613b4957805160ff1916838001178555613b77565b82800160010185558215613b77579182015b82811115613b76578251825591602001919060010190613b5b565b5b509050613b849190613b88565b5090565b5b80821115613ba1576000816000905550600101613b89565b5090565b6000613bb8613bb3846149c6565b6149a1565b905082815260208101848484011115613bd457613bd3614de3565b5b613bdf848285614ba5565b509392505050565b6000613bfa613bf5846149f7565b6149a1565b905082815260208101848484011115613c1657613c15614de3565b5b613c21848285614ba5565b509392505050565b600081359050613c388161555d565b92915050565b600081359050613c4d81615574565b92915050565b600081359050613c628161558b565b92915050565b600081519050613c778161558b565b92915050565b600082601f830112613c9257613c91614dde565b5b8135613ca2848260208601613ba5565b91505092915050565b600082601f830112613cc057613cbf614dde565b5b8135613cd0848260208601613be7565b91505092915050565b600081359050613ce8816155a2565b92915050565b600060208284031215613d0457613d03614ded565b5b6000613d1284828501613c29565b91505092915050565b60008060408385031215613d3257613d31614ded565b5b6000613d4085828601613c29565b9250506020613d5185828601613c29565b9150509250929050565b600080600060608486031215613d7457613d73614ded565b5b6000613d8286828701613c29565b9350506020613d9386828701613c29565b9250506040613da486828701613cd9565b9150509250925092565b60008060008060808587031215613dc857613dc7614ded565b5b6000613dd687828801613c29565b9450506020613de787828801613c29565b9350506040613df887828801613cd9565b925050606085013567ffffffffffffffff811115613e1957613e18614de8565b5b613e2587828801613c7d565b91505092959194509250565b60008060408385031215613e4857613e47614ded565b5b6000613e5685828601613c29565b9250506020613e6785828601613c3e565b9150509250929050565b60008060408385031215613e8857613e87614ded565b5b6000613e9685828601613c29565b9250506020613ea785828601613cd9565b9150509250929050565b600060208284031215613ec757613ec6614ded565b5b6000613ed584828501613c3e565b91505092915050565b600060208284031215613ef457613ef3614ded565b5b6000613f0284828501613c53565b91505092915050565b600060208284031215613f2157613f20614ded565b5b6000613f2f84828501613c68565b91505092915050565b600060208284031215613f4e57613f4d614ded565b5b600082013567ffffffffffffffff811115613f6c57613f6b614de8565b5b613f7884828501613cab565b91505092915050565b600060208284031215613f9757613f96614ded565b5b6000613fa584828501613cd9565b91505092915050565b613fb781614b31565b82525050565b613fc681614b43565b82525050565b6000613fd782614a28565b613fe18185614a3e565b9350613ff1818560208601614bb4565b613ffa81614df2565b840191505092915050565b600061401082614a33565b61401a8185614a5a565b935061402a818560208601614bb4565b61403381614df2565b840191505092915050565b600061404982614a33565b6140538185614a6b565b9350614063818560208601614bb4565b80840191505092915050565b600061407c601283614a5a565b915061408782614e03565b602082019050919050565b600061409f602b83614a5a565b91506140aa82614e2c565b604082019050919050565b60006140c2603283614a5a565b91506140cd82614e7b565b604082019050919050565b60006140e5602683614a5a565b91506140f082614eca565b604082019050919050565b6000614108601c83614a5a565b915061411382614f19565b602082019050919050565b600061412b601683614a5a565b915061413682614f42565b602082019050919050565b600061414e601383614a5a565b915061415982614f6b565b602082019050919050565b6000614171602483614a5a565b915061417c82614f94565b604082019050919050565b6000614194601983614a5a565b915061419f82614fe3565b602082019050919050565b60006141b7602283614a5a565b91506141c28261500c565b604082019050919050565b60006141da602c83614a5a565b91506141e58261505b565b604082019050919050565b60006141fd602983614a5a565b9150614208826150aa565b604082019050919050565b6000614220603883614a5a565b915061422b826150f9565b604082019050919050565b6000614243602a83614a5a565b915061424e82615148565b604082019050919050565b6000614266602983614a5a565b915061427182615197565b604082019050919050565b6000614289602083614a5a565b9150614294826151e6565b602082019050919050565b60006142ac602083614a5a565b91506142b78261520f565b602082019050919050565b60006142cf602c83614a5a565b91506142da82615238565b604082019050919050565b60006142f2600583614a6b565b91506142fd82615287565b600582019050919050565b6000614315602083614a5a565b9150614320826152b0565b602082019050919050565b6000614338602083614a5a565b9150614343826152d9565b602082019050919050565b600061435b602983614a5a565b915061436682615302565b604082019050919050565b600061437e602f83614a5a565b915061438982615351565b604082019050919050565b60006143a1602183614a5a565b91506143ac826153a0565b604082019050919050565b60006143c4601783614a5a565b91506143cf826153ef565b602082019050919050565b60006143e7600083614a4f565b91506143f282615418565b600082019050919050565b600061440a603183614a5a565b91506144158261541b565b604082019050919050565b600061442d601e83614a5a565b91506144388261546a565b602082019050919050565b6000614450602c83614a5a565b915061445b82615493565b604082019050919050565b6000614473601283614a5a565b915061447e826154e2565b602082019050919050565b6000614496600f83614a5a565b91506144a18261550b565b602082019050919050565b60006144b9601b83614a5a565b91506144c482615534565b602082019050919050565b6144d881614b9b565b82525050565b60006144ea828561403e565b91506144f6828461403e565b9150614501826142e5565b91508190509392505050565b6000614518826143da565b9150819050919050565b60006020820190506145376000830184613fae565b92915050565b60006080820190506145526000830187613fae565b61455f6020830186613fae565b61456c60408301856144cf565b818103606083015261457e8184613fcc565b905095945050505050565b600060208201905061459e6000830184613fbd565b92915050565b600060208201905081810360008301526145be8184614005565b905092915050565b600060208201905081810360008301526145df8161406f565b9050919050565b600060208201905081810360008301526145ff81614092565b9050919050565b6000602082019050818103600083015261461f816140b5565b9050919050565b6000602082019050818103600083015261463f816140d8565b9050919050565b6000602082019050818103600083015261465f816140fb565b9050919050565b6000602082019050818103600083015261467f8161411e565b9050919050565b6000602082019050818103600083015261469f81614141565b9050919050565b600060208201905081810360008301526146bf81614164565b9050919050565b600060208201905081810360008301526146df81614187565b9050919050565b600060208201905081810360008301526146ff816141aa565b9050919050565b6000602082019050818103600083015261471f816141cd565b9050919050565b6000602082019050818103600083015261473f816141f0565b9050919050565b6000602082019050818103600083015261475f81614213565b9050919050565b6000602082019050818103600083015261477f81614236565b9050919050565b6000602082019050818103600083015261479f81614259565b9050919050565b600060208201905081810360008301526147bf8161427c565b9050919050565b600060208201905081810360008301526147df8161429f565b9050919050565b600060208201905081810360008301526147ff816142c2565b9050919050565b6000602082019050818103600083015261481f81614308565b9050919050565b6000602082019050818103600083015261483f8161432b565b9050919050565b6000602082019050818103600083015261485f8161434e565b9050919050565b6000602082019050818103600083015261487f81614371565b9050919050565b6000602082019050818103600083015261489f81614394565b9050919050565b600060208201905081810360008301526148bf816143b7565b9050919050565b600060208201905081810360008301526148df816143fd565b9050919050565b600060208201905081810360008301526148ff81614420565b9050919050565b6000602082019050818103600083015261491f81614443565b9050919050565b6000602082019050818103600083015261493f81614466565b9050919050565b6000602082019050818103600083015261495f81614489565b9050919050565b6000602082019050818103600083015261497f816144ac565b9050919050565b600060208201905061499b60008301846144cf565b92915050565b60006149ab6149bc565b90506149b78282614c19565b919050565b6000604051905090565b600067ffffffffffffffff8211156149e1576149e0614daf565b5b6149ea82614df2565b9050602081019050919050565b600067ffffffffffffffff821115614a1257614a11614daf565b5b614a1b82614df2565b9050602081019050919050565b600081519050919050565b600081519050919050565b600082825260208201905092915050565b600081905092915050565b600082825260208201905092915050565b600081905092915050565b6000614a8182614b9b565b9150614a8c83614b9b565b9250827fffffffffffffffffffffffffffffffffffffffffffffffffffffffffffffffff03821115614ac157614ac0614cc4565b5b828201905092915050565b6000614ad782614b9b565b9150614ae283614b9b565b925082614af257614af1614cf3565b5b828204905092915050565b6000614b0882614b9b565b9150614b1383614b9b565b925082821015614b2657614b25614cc4565b5b828203905092915050565b6000614b3c82614b7b565b9050919050565b60008115159050919050565b60007fffffffff0000000000000000000000000000000000000000000000000000000082169050919050565b600073ffffffffffffffffffffffffffffffffffffffff82169050919050565b6000819050919050565b82818337600083830152505050565b60005b83811015614bd2578082015181840152602081019050614bb7565b83811115614be1576000848401525b50505050565b60006002820490506001821680614bff57607f821691505b60208210811415614c1357614c12614d22565b5b50919050565b614c2282614df2565b810181811067ffffffffffffffff82111715614c4157614c40614daf565b5b80604052505050565b6000614c5582614b9b565b91507fffffffffffffffffffffffffffffffffffffffffffffffffffffffffffffffff821415614c8857614c87614cc4565b5b600182019050919050565b6000614c9e82614b9b565b9150614ca983614b9b565b925082614cb957614cb8614cf3565b5b828206905092915050565b7f4e487b7100000000000000000000000000000000000000000000000000000000600052601160045260246000fd5b7f4e487b7100000000000000000000000000000000000000000000000000000000600052601260045260246000fd5b7f4e487b7100000000000000000000000000000000000000000000000000000000600052602260045260246000fd5b7f4e487b7100000000000000000000000000000000000000000000000000000000600052603160045260246000fd5b7f4e487b7100000000000000000000000000000000000000000000000000000000600052603260045260246000fd5b7f4e487b7100000000000000000000000000000000000000000000000000000000600052604160045260246000fd5b600080fd5b600080fd5b600080fd5b600080fd5b6000601f19601f8301169050919050565b7f4661696c656420746f2077697468647261770000000000000000000000000000600082015250565b7f455243373231456e756d657261626c653a206f776e657220696e646578206f7560008201527f74206f6620626f756e6473000000000000000000000000000000000000000000602082015250565b7f4552433732313a207472616e7366657220746f206e6f6e20455243373231526560008201527f63656976657220696d706c656d656e7465720000000000000000000000000000602082015250565b7f4f776e61626c653a206e6577206f776e657220697320746865207a65726f206160008201527f6464726573730000000000000000000000000000000000000000000000000000602082015250565b7f4552433732313a20746f6b656e20616c7265616479206d696e74656400000000600082015250565b7f4f76657220746865206d61784d696e74416d6f756e7400000000000000000000600082015250565b7f436f6e7472616374206973207061757365642100000000000000000000000000600082015250565b7f4552433732313a207472616e7366657220746f20746865207a65726f2061646460008201527f7265737300000000000000000000000000000000000000000000000000000000602082015250565b7f4552433732313a20617070726f766520746f2063616c6c657200000000000000600082015250565b7f5075626c69632073616c652074696d65206973206e6f7420616374697665207960008201527f6574000000000000000000000000000000000000000000000000000000000000602082015250565b7f4552433732313a206f70657261746f7220717565727920666f72206e6f6e657860008201527f697374656e7420746f6b656e0000000000000000000000000000000000000000602082015250565b7f43757272656e7420706572696f64206973206e6f742077697468696e2070726560008201527f73616c652074696d650000000000000000000000000000000000000000000000602082015250565b7f4552433732313a20617070726f76652063616c6c6572206973206e6f74206f7760008201527f6e6572206e6f7220617070726f76656420666f7220616c6c0000000000000000602082015250565b7f4552433732313a2062616c616e636520717565727920666f7220746865207a6560008201527f726f206164647265737300000000000000000000000000000000000000000000602082015250565b7f4552433732313a206f776e657220717565727920666f72206e6f6e657869737460008201527f656e7420746f6b656e0000000000000000000000000000000000000000000000602082015250565b7f507572636861736520776f756c6420657863656564206d617820737570706c79600082015250565b7f4552433732313a206d696e7420746f20746865207a65726f2061646472657373600082015250565b7f4552433732313a20617070726f76656420717565727920666f72206e6f6e657860008201527f697374656e7420746f6b656e0000000000000000000000000000000000000000602082015250565b7f2e6a736f6e000000000000000000000000000000000000000000000000000000600082015250565b7f53656e64206120646976697369626c6520616d6f756e74206f66207072696365600082015250565b7f4f776e61626c653a2063616c6c6572206973206e6f7420746865206f776e6572600082015250565b7f4552433732313a207472616e73666572206f6620746f6b656e2074686174206960008201527f73206e6f74206f776e0000000000000000000000000000000000000000000000602082015250565b7f4552433732314d657461646174613a2055524920717565727920666f72206e6f60008201527f6e6578697374656e7420746f6b656e0000000000000000000000000000000000602082015250565b7f4552433732313a20617070726f76616c20746f2063757272656e74206f776e6560008201527f7200000000000000000000000000000000000000000000000000000000000000602082015250565b7f4d6178203130206974656d73207065722077616c6c6574000000000000000000600082015250565b50565b7f4552433732313a207472616e736665722063616c6c6572206973206e6f74206f60008201527f776e6572206e6f7220617070726f766564000000000000000000000000000000602082015250565b7f50726573616c652074696d65206973206e6f7420616374697665207965740000600082015250565b7f455243373231456e756d657261626c653a20676c6f62616c20696e646578206f60008201527f7574206f6620626f756e64730000000000000000000000000000000000000000602082015250565b7f436f6e7472616374206973207061757365640000000000000000000000000000600082015250565b7f416c6c206974656d7320736f6c64210000000000000000000000000000000000600082015250565b7f596f75206e65656420746f20626520696e2077686974656c6973740000000000600082015250565b61556681614b31565b811461557157600080fd5b50565b61557d81614b43565b811461558857600080fd5b50565b61559481614b4f565b811461559f57600080fd5b50565b6155ab81614b9b565b81146155b657600080fd5b5056fea264697066735822122098ab9e3d288710d5a551cf1d4d24960f5e770361ccc3ef0242732fcfa703ca2464736f6c6343000807003368747470733a2f2f676174657761792e70696e6174612e636c6f75642f697066732f516d575955644477766d326454704e5255316b627948697a566d5a7967396547705739573531486254774432584b2f68747470733a2f2f676174657761792e70696e6174612e636c6f75642f697066732f516d5433427171484533546d5a447037364574583457626448687745344867526d596e747a7a626d4747754a6867",
  "immutableReferences": {},
  "source": "// SPDX-License-Identifier: MIT\r\npragma solidity ^0.8.7;\r\n\r\nimport \"@openzeppelin/contracts/token/ERC721/extensions/ERC721Enumerable.sol\";\r\nimport \"@openzeppelin/contracts/access/Ownable.sol\";\r\nimport \"@openzeppelin/contracts/utils/math/SafeMath.sol\";\r\n\r\ncontract StubbornApe is ERC721Enumerable, Ownable {\r\n    using Strings for uint256;\r\n    using SafeMath for uint256;\r\n\r\n    string public baseURI;\r\n\r\n    // Costs ====================================\r\n    uint256 public presaleCost = 0.02 ether;\r\n    uint256 public publicSaleCost = 0.08 ether;\r\n\r\n    // Sale dates ===============================\r\n    uint256 public presaleStartTimestamp = 1649959200; // 14 April 2022 5 PM EST\r\n    uint256 public publicSaleStartTimestamp = 1650114000; // 16 April 2022 12 PM EST\r\n\r\n    // Count values =============================\r\n    uint256 public MAX_ITEMS = 7000;\r\n    uint256 public _mintedItems = 0;\r\n    uint256 public maxMintAmount = 10; // Max items per tx\r\n\r\n    bool public paused = false;\r\n    string public notRevealedUri;\r\n    bool public revealed = false;\r\n\r\n    // Lists ====================================\r\n    mapping(address => bool) public whitelisted;\r\n    mapping(address => uint256) public presaleWallets;\r\n\r\n    // Events ===================================\r\n    event PublicSaleMint(address indexed _from, uint256 indexed _tokenId);\r\n\r\n    constructor() ERC721(\"Stubborn Apes\", \"STUBS\") {\r\n        setBaseURI(\r\n            \"https://gateway.pinata.cloud/ipfs/QmWYUdDwvm2dTpNRU1kbyHizVmZyg9eGpW9W51HbTwD2XK/\"\r\n        );\r\n        setNotRevealedURI(\r\n            \"https://gateway.pinata.cloud/ipfs/QmT3BqqHE3TmZDp76EtX4WbdHhwE4HgRmYntzzbmGGuJhg\"\r\n        );\r\n    }\r\n\r\n    function _baseURI() internal view virtual override returns (string memory) {\r\n        return baseURI;\r\n    }\r\n\r\n    // Presale Minting ============================\r\n    function presaleMint() public payable {\r\n        require(!paused, \"Contract is paused!\");\r\n        require(\r\n            block.timestamp >= presaleStartTimestamp,\r\n            \"Presale time is not active yet\"\r\n        );\r\n        require(\r\n            block.timestamp <= publicSaleStartTimestamp,\r\n            \"Current period is not within presale time\"\r\n        );\r\n        uint256 remainder = msg.value % presaleCost;\r\n        uint256 _mintAmount = msg.value / presaleCost;\r\n        require(remainder == 0, \"Send a divisible amount of price\");\r\n        require(\r\n            _mintedItems.add(_mintAmount) <= MAX_ITEMS,\r\n            \"Purchase would exceed max supply\"\r\n        );\r\n        require(_mintAmount <= maxMintAmount, \"Over the maxMintAmount\");\r\n        require(whitelisted[msg.sender] == true, \"You need to be in whitelist\");\r\n        require(presaleWallets[msg.sender] <= 10, \"Max 10 items per wallet\");\r\n\r\n        if (msg.sender != owner()) {\r\n            for (uint256 i = 0; i < _mintAmount; i++) {\r\n                uint256 mintIndex = _mintedItems + 1;\r\n                require(_mintedItems < MAX_ITEMS, \"All items sold!\");\r\n                _safeMint(msg.sender, mintIndex);\r\n                _mintedItems++;\r\n            }\r\n            presaleUser(msg.sender, presaleWallets[msg.sender] + _mintAmount);\r\n        }\r\n    }\r\n\r\n    // Public sale Minting =================================\r\n    function publicSaleMint() public payable {\r\n        require(!paused, \"Contract is paused\");\r\n        require(\r\n            block.timestamp >= publicSaleStartTimestamp,\r\n            \"Public sale time is not active yet\"\r\n        );\r\n        uint256 remainder = msg.value % publicSaleCost;\r\n        uint256 _mintAmount = msg.value / publicSaleCost;\r\n        require(remainder == 0, \"Send a divisible amount of price\");\r\n        require(\r\n            _mintedItems.add(_mintAmount) <= MAX_ITEMS,\r\n            \"Purchase would exceed max supply\"\r\n        );\r\n        require(_mintAmount <= maxMintAmount, \"Over the maxMintAmount\");\r\n\r\n        if (msg.sender != owner()) {\r\n            for (uint256 i = 0; i < _mintAmount; i++) {\r\n                uint256 mintIndex = _mintedItems + 1;\r\n                require(_mintedItems < MAX_ITEMS, \"All items sold!\");\r\n                _safeMint(msg.sender, mintIndex);\r\n                emit PublicSaleMint(msg.sender, mintIndex);\r\n                _mintedItems++;\r\n            }\r\n        }\r\n    }\r\n\r\n    // Admin Minting (Mint by owner) =========================\r\n    function ownerMint(uint256 _mintAmount) public payable onlyOwner {\r\n        require(!paused, \"Contract is paused\");\r\n        require(\r\n            _mintedItems.add(_mintAmount) <= MAX_ITEMS,\r\n            \"Purchase would exceed max supply\"\r\n        );\r\n        require(_mintAmount <= maxMintAmount, \"Over the maxMintAmount\");\r\n\r\n        for (uint256 i = 0; i < _mintAmount; i++) {\r\n            uint256 mintIndex = _mintedItems + 1;\r\n            require(_mintedItems < MAX_ITEMS, \"All items sold!\");\r\n            _safeMint(msg.sender, mintIndex);\r\n            _mintedItems++;\r\n        }\r\n    }\r\n\r\n    // Get MetaData TokenURI =======================\r\n    function tokenURI(uint256 tokenId)\r\n        public\r\n        view\r\n        virtual\r\n        override\r\n        returns (string memory)\r\n    {\r\n        require(\r\n            _exists(tokenId),\r\n            \"ERC721Metadata: URI query for nonexistent token\"\r\n        );\r\n\r\n        if (revealed == false) {\r\n            return notRevealedUri;\r\n        }\r\n\r\n        string memory currentBaseURI = _baseURI();\r\n        return\r\n            bytes(currentBaseURI).length > 0\r\n                ? string(\r\n                    abi.encodePacked(\r\n                        currentBaseURI,\r\n                        tokenId.toString(),\r\n                        \".json\"\r\n                    )\r\n                )\r\n                : \"\";\r\n    }\r\n\r\n    // Reveal Metadata of Tokens =======================\r\n    function reveal(bool _state) public onlyOwner {\r\n        revealed = _state;\r\n    }\r\n\r\n    // Set Placeholder metadata URI =======================\r\n    function setNotRevealedURI(string memory _notRevealedURI) public {\r\n        notRevealedUri = _notRevealedURI;\r\n    }\r\n\r\n    // Set Presale timestamp, (input: timestamp in UTC) =======================\r\n    function setPresaleStartTimestamp(uint256 _startTimestamp)\r\n        external\r\n        onlyOwner\r\n    {\r\n        presaleStartTimestamp = _startTimestamp;\r\n    }\r\n\r\n    // Set public timestamp (input: timestamp in UTC) =======================\r\n    function setPublicSaleStartTimestamp(uint256 _startTimestamp)\r\n        external\r\n        onlyOwner\r\n    {\r\n        publicSaleStartTimestamp = _startTimestamp;\r\n    }\r\n\r\n    // Set Presale cost for token in ether =======================\r\n    function setPresaleCost(uint256 _newCost) public onlyOwner {\r\n        presaleCost = _newCost;\r\n    }\r\n\r\n    // Set public sale cost for token in ether =======================\r\n    function setPublicSaleCost(uint256 _newCost) public onlyOwner {\r\n        publicSaleCost = _newCost;\r\n    }\r\n\r\n    // Set max mint limit for single transaction at a time =======================\r\n    function setMaxMintAmount(uint256 _maxItemsPerTx) public onlyOwner {\r\n        maxMintAmount = _maxItemsPerTx;\r\n    }\r\n\r\n    // Set base URI of metadata (an IPFS URL) =======================\r\n    function setBaseURI(string memory _newBaseURI) public onlyOwner {\r\n        baseURI = _newBaseURI;\r\n    }\r\n\r\n    // Pause the contract which will stop minting process =======================\r\n    function pause(bool _state) public onlyOwner {\r\n        paused = _state;\r\n    }\r\n\r\n    // Add a whitelist user who can mint in presale  =======================\r\n    function whitelistUser(address _user) public onlyOwner {\r\n        whitelisted[_user] = true;\r\n    }\r\n\r\n    // Remove a whitelist user from current whitelist list =======================\r\n    function removeWhitelistUser(address _user) public onlyOwner {\r\n        whitelisted[_user] = false;\r\n    }\r\n\r\n    // Add a presale user =======================\r\n    function presaleUser(address _user, uint256 _amount) internal {\r\n        presaleWallets[_user] = _amount;\r\n    }\r\n\r\n    // Get number of tokens minted by a particular address =======================\r\n    function getMintedCountByPresaledUser(address _user)\r\n        public\r\n        view\r\n        virtual\r\n        returns (uint256)\r\n    {\r\n        return presaleWallets[_user];\r\n    }\r\n\r\n    // Remove a presale user from wallet =======================\r\n    function removePresaleUser(address _user, uint256 _amount)\r\n        external\r\n        onlyOwner\r\n    {\r\n        presaleWallets[_user] = _amount;\r\n    }\r\n\r\n    // Withdraw the balance from samrt contract =======================\r\n    function withdraw() external onlyOwner {\r\n        (bool success, ) = owner().call{value: address(this).balance}(\"\");\r\n        require(success, \"Failed to withdraw\");\r\n    }\r\n}\r\n",
  "sourcePath": "D:\\Shah Faisal\\Projects\\stubborn-apes\\contracts\\StubbornApe.sol",
  "compiler": {
    "name": "solc",
    "version": "0.8.7+commit.e28d00a7.Emscripten.clang"
  },
  "schemaVersion": "3.4.4",
  "updatedAt": "2022-02-24T10:25:01.799Z",
  "networkType": "ethereum",
  "devdoc": {
    "kind": "dev",
    "methods": {
      "approve(address,uint256)": {
        "details": "See {IERC721-approve}."
      },
      "balanceOf(address)": {
        "details": "See {IERC721-balanceOf}."
      },
      "getApproved(uint256)": {
        "details": "See {IERC721-getApproved}."
      },
      "isApprovedForAll(address,address)": {
        "details": "See {IERC721-isApprovedForAll}."
      },
      "name()": {
        "details": "See {IERC721Metadata-name}."
      },
      "owner()": {
        "details": "Returns the address of the current owner."
      },
      "ownerOf(uint256)": {
        "details": "See {IERC721-ownerOf}."
      },
      "renounceOwnership()": {
        "details": "Leaves the contract without owner. It will not be possible to call `onlyOwner` functions anymore. Can only be called by the current owner. NOTE: Renouncing ownership will leave the contract without an owner, thereby removing any functionality that is only available to the owner."
      },
      "safeTransferFrom(address,address,uint256)": {
        "details": "See {IERC721-safeTransferFrom}."
      },
      "safeTransferFrom(address,address,uint256,bytes)": {
        "details": "See {IERC721-safeTransferFrom}."
      },
      "setApprovalForAll(address,bool)": {
        "details": "See {IERC721-setApprovalForAll}."
      },
      "supportsInterface(bytes4)": {
        "details": "See {IERC165-supportsInterface}."
      },
      "symbol()": {
        "details": "See {IERC721Metadata-symbol}."
      },
      "tokenByIndex(uint256)": {
        "details": "See {IERC721Enumerable-tokenByIndex}."
      },
      "tokenOfOwnerByIndex(address,uint256)": {
        "details": "See {IERC721Enumerable-tokenOfOwnerByIndex}."
      },
      "tokenURI(uint256)": {
        "details": "See {IERC721Metadata-tokenURI}."
      },
      "totalSupply()": {
        "details": "See {IERC721Enumerable-totalSupply}."
      },
      "transferFrom(address,address,uint256)": {
        "details": "See {IERC721-transferFrom}."
      },
      "transferOwnership(address)": {
        "details": "Transfers ownership of the contract to a new account (`newOwner`). Can only be called by the current owner."
      }
    },
    "version": 1
  },
  "userdoc": {
    "kind": "user",
    "methods": {},
    "version": 1
  }
}