{
  "contractName": "StubbornApe",
  "abi": [
    {
      "inputs": [],
      "stateMutability": "nonpayable",
      "type": "constructor"
    },
    {
      "anonymous": false,
      "inputs": [
        {
          "indexed": true,
          "internalType": "address",
          "name": "owner",
          "type": "address"
        },
        {
          "indexed": true,
          "internalType": "address",
          "name": "approved",
          "type": "address"
        },
        {
          "indexed": true,
          "internalType": "uint256",
          "name": "tokenId",
          "type": "uint256"
        }
      ],
      "name": "Approval",
      "type": "event"
    },
    {
      "anonymous": false,
      "inputs": [
        {
          "indexed": true,
          "internalType": "address",
          "name": "owner",
          "type": "address"
        },
        {
          "indexed": true,
          "internalType": "address",
          "name": "operator",
          "type": "address"
        },
        {
          "indexed": false,
          "internalType": "bool",
          "name": "approved",
          "type": "bool"
        }
      ],
      "name": "ApprovalForAll",
      "type": "event"
    },
    {
      "anonymous": false,
      "inputs": [
        {
          "indexed": true,
          "internalType": "address",
          "name": "previousOwner",
          "type": "address"
        },
        {
          "indexed": true,
          "internalType": "address",
          "name": "newOwner",
          "type": "address"
        }
      ],
      "name": "OwnershipTransferred",
      "type": "event"
    },
    {
      "anonymous": false,
      "inputs": [
        {
          "indexed": true,
          "internalType": "address",
          "name": "_from",
          "type": "address"
        },
        {
          "indexed": true,
          "internalType": "uint256",
          "name": "_tokenId",
          "type": "uint256"
        }
      ],
      "name": "PublicSaleMint",
      "type": "event"
    },
    {
      "anonymous": false,
      "inputs": [
        {
          "indexed": true,
          "internalType": "address",
          "name": "from",
          "type": "address"
        },
        {
          "indexed": true,
          "internalType": "address",
          "name": "to",
          "type": "address"
        },
        {
          "indexed": true,
          "internalType": "uint256",
          "name": "tokenId",
          "type": "uint256"
        }
      ],
      "name": "Transfer",
      "type": "event"
    },
    {
      "inputs": [],
      "name": "MAX_ITEMS",
      "outputs": [
        {
          "internalType": "uint256",
          "name": "",
          "type": "uint256"
        }
      ],
      "stateMutability": "view",
      "type": "function",
      "constant": true
    },
    {
      "inputs": [],
      "name": "_mintedItems",
      "outputs": [
        {
          "internalType": "uint256",
          "name": "",
          "type": "uint256"
        }
      ],
      "stateMutability": "view",
      "type": "function",
      "constant": true
    },
    {
      "inputs": [
        {
          "internalType": "address",
          "name": "to",
          "type": "address"
        },
        {
          "internalType": "uint256",
          "name": "tokenId",
          "type": "uint256"
        }
      ],
      "name": "approve",
      "outputs": [],
      "stateMutability": "nonpayable",
      "type": "function"
    },
    {
      "inputs": [
        {
          "internalType": "address",
          "name": "owner",
          "type": "address"
        }
      ],
      "name": "balanceOf",
      "outputs": [
        {
          "internalType": "uint256",
          "name": "",
          "type": "uint256"
        }
      ],
      "stateMutability": "view",
      "type": "function",
      "constant": true
    },
    {
      "inputs": [],
      "name": "baseURI",
      "outputs": [
        {
          "internalType": "string",
          "name": "",
          "type": "string"
        }
      ],
      "stateMutability": "view",
      "type": "function",
      "constant": true
    },
    {
      "inputs": [
        {
          "internalType": "uint256",
          "name": "tokenId",
          "type": "uint256"
        }
      ],
      "name": "getApproved",
      "outputs": [
        {
          "internalType": "address",
          "name": "",
          "type": "address"
        }
      ],
      "stateMutability": "view",
      "type": "function",
      "constant": true
    },
    {
      "inputs": [
        {
          "internalType": "address",
          "name": "owner",
          "type": "address"
        },
        {
          "internalType": "address",
          "name": "operator",
          "type": "address"
        }
      ],
      "name": "isApprovedForAll",
      "outputs": [
        {
          "internalType": "bool",
          "name": "",
          "type": "bool"
        }
      ],
      "stateMutability": "view",
      "type": "function",
      "constant": true
    },
    {
      "inputs": [],
      "name": "maxMintAmount",
      "outputs": [
        {
          "internalType": "uint256",
          "name": "",
          "type": "uint256"
        }
      ],
      "stateMutability": "view",
      "type": "function",
      "constant": true
    },
    {
      "inputs": [],
      "name": "name",
      "outputs": [
        {
          "internalType": "string",
          "name": "",
          "type": "string"
        }
      ],
      "stateMutability": "view",
      "type": "function",
      "constant": true
    },
    {
      "inputs": [],
      "name": "owner",
      "outputs": [
        {
          "internalType": "address",
          "name": "",
          "type": "address"
        }
      ],
      "stateMutability": "view",
      "type": "function",
      "constant": true
    },
    {
      "inputs": [
        {
          "internalType": "uint256",
          "name": "tokenId",
          "type": "uint256"
        }
      ],
      "name": "ownerOf",
      "outputs": [
        {
          "internalType": "address",
          "name": "",
          "type": "address"
        }
      ],
      "stateMutability": "view",
      "type": "function",
      "constant": true
    },
    {
      "inputs": [],
      "name": "paused",
      "outputs": [
        {
          "internalType": "bool",
          "name": "",
          "type": "bool"
        }
      ],
      "stateMutability": "view",
      "type": "function",
      "constant": true
    },
    {
      "inputs": [],
      "name": "presaleCost",
      "outputs": [
        {
          "internalType": "uint256",
          "name": "",
          "type": "uint256"
        }
      ],
      "stateMutability": "view",
      "type": "function",
      "constant": true
    },
    {
      "inputs": [],
      "name": "presaleStartTimestamp",
      "outputs": [
        {
          "internalType": "uint256",
          "name": "",
          "type": "uint256"
        }
      ],
      "stateMutability": "view",
      "type": "function",
      "constant": true
    },
    {
      "inputs": [
        {
          "internalType": "address",
          "name": "",
          "type": "address"
        }
      ],
      "name": "presaleWallets",
      "outputs": [
        {
          "internalType": "uint256",
          "name": "",
          "type": "uint256"
        }
      ],
      "stateMutability": "view",
      "type": "function",
      "constant": true
    },
    {
      "inputs": [],
      "name": "publicSaleCost",
      "outputs": [
        {
          "internalType": "uint256",
          "name": "",
          "type": "uint256"
        }
      ],
      "stateMutability": "view",
      "type": "function",
      "constant": true
    },
    {
      "inputs": [],
      "name": "publicSaleStartTimestamp",
      "outputs": [
        {
          "internalType": "uint256",
          "name": "",
          "type": "uint256"
        }
      ],
      "stateMutability": "view",
      "type": "function",
      "constant": true
    },
    {
      "inputs": [],
      "name": "renounceOwnership",
      "outputs": [],
      "stateMutability": "nonpayable",
      "type": "function"
    },
    {
      "inputs": [
        {
          "internalType": "address",
          "name": "from",
          "type": "address"
        },
        {
          "internalType": "address",
          "name": "to",
          "type": "address"
        },
        {
          "internalType": "uint256",
          "name": "tokenId",
          "type": "uint256"
        }
      ],
      "name": "safeTransferFrom",
      "outputs": [],
      "stateMutability": "nonpayable",
      "type": "function"
    },
    {
      "inputs": [
        {
          "internalType": "address",
          "name": "from",
          "type": "address"
        },
        {
          "internalType": "address",
          "name": "to",
          "type": "address"
        },
        {
          "internalType": "uint256",
          "name": "tokenId",
          "type": "uint256"
        },
        {
          "internalType": "bytes",
          "name": "_data",
          "type": "bytes"
        }
      ],
      "name": "safeTransferFrom",
      "outputs": [],
      "stateMutability": "nonpayable",
      "type": "function"
    },
    {
      "inputs": [
        {
          "internalType": "address",
          "name": "operator",
          "type": "address"
        },
        {
          "internalType": "bool",
          "name": "approved",
          "type": "bool"
        }
      ],
      "name": "setApprovalForAll",
      "outputs": [],
      "stateMutability": "nonpayable",
      "type": "function"
    },
    {
      "inputs": [
        {
          "internalType": "bytes4",
          "name": "interfaceId",
          "type": "bytes4"
        }
      ],
      "name": "supportsInterface",
      "outputs": [
        {
          "internalType": "bool",
          "name": "",
          "type": "bool"
        }
      ],
      "stateMutability": "view",
      "type": "function",
      "constant": true
    },
    {
      "inputs": [],
      "name": "symbol",
      "outputs": [
        {
          "internalType": "string",
          "name": "",
          "type": "string"
        }
      ],
      "stateMutability": "view",
      "type": "function",
      "constant": true
    },
    {
      "inputs": [
        {
          "internalType": "uint256",
          "name": "index",
          "type": "uint256"
        }
      ],
      "name": "tokenByIndex",
      "outputs": [
        {
          "internalType": "uint256",
          "name": "",
          "type": "uint256"
        }
      ],
      "stateMutability": "view",
      "type": "function",
      "constant": true
    },
    {
      "inputs": [
        {
          "internalType": "address",
          "name": "owner",
          "type": "address"
        },
        {
          "internalType": "uint256",
          "name": "index",
          "type": "uint256"
        }
      ],
      "name": "tokenOfOwnerByIndex",
      "outputs": [
        {
          "internalType": "uint256",
          "name": "",
          "type": "uint256"
        }
      ],
      "stateMutability": "view",
      "type": "function",
      "constant": true
    },
    {
      "inputs": [],
      "name": "totalSupply",
      "outputs": [
        {
          "internalType": "uint256",
          "name": "",
          "type": "uint256"
        }
      ],
      "stateMutability": "view",
      "type": "function",
      "constant": true
    },
    {
      "inputs": [
        {
          "internalType": "address",
          "name": "from",
          "type": "address"
        },
        {
          "internalType": "address",
          "name": "to",
          "type": "address"
        },
        {
          "internalType": "uint256",
          "name": "tokenId",
          "type": "uint256"
        }
      ],
      "name": "transferFrom",
      "outputs": [],
      "stateMutability": "nonpayable",
      "type": "function"
    },
    {
      "inputs": [
        {
          "internalType": "address",
          "name": "newOwner",
          "type": "address"
        }
      ],
      "name": "transferOwnership",
      "outputs": [],
      "stateMutability": "nonpayable",
      "type": "function"
    },
    {
      "inputs": [
        {
          "internalType": "address",
          "name": "",
          "type": "address"
        }
      ],
      "name": "whitelisted",
      "outputs": [
        {
          "internalType": "bool",
          "name": "",
          "type": "bool"
        }
      ],
      "stateMutability": "view",
      "type": "function",
      "constant": true
    },
    {
      "inputs": [],
      "name": "presaleMint",
      "outputs": [],
      "stateMutability": "payable",
      "type": "function",
      "payable": true
    },
    {
      "inputs": [],
      "name": "publicSaleMint",
      "outputs": [],
      "stateMutability": "payable",
      "type": "function",
      "payable": true
    },
    {
      "inputs": [
        {
          "internalType": "uint256",
          "name": "tokenId",
          "type": "uint256"
        }
      ],
      "name": "tokenURI",
      "outputs": [
        {
          "internalType": "string",
          "name": "",
          "type": "string"
        }
      ],
      "stateMutability": "view",
      "type": "function",
      "constant": true
    },
    {
      "inputs": [
        {
          "internalType": "uint256",
          "name": "_startTimestamp",
          "type": "uint256"
        }
      ],
      "name": "setPresaleStartTimestamp",
      "outputs": [],
      "stateMutability": "nonpayable",
      "type": "function"
    },
    {
      "inputs": [
        {
          "internalType": "uint256",
          "name": "_startTimestamp",
          "type": "uint256"
        }
      ],
      "name": "setPublicSaleStartTimestamp",
      "outputs": [],
      "stateMutability": "nonpayable",
      "type": "function"
    },
    {
      "inputs": [
        {
          "internalType": "uint256",
          "name": "_newCost",
          "type": "uint256"
        }
      ],
      "name": "setPresaleCost",
      "outputs": [],
      "stateMutability": "nonpayable",
      "type": "function"
    },
    {
      "inputs": [
        {
          "internalType": "uint256",
          "name": "_newCost",
          "type": "uint256"
        }
      ],
      "name": "setPublicSaleCost",
      "outputs": [],
      "stateMutability": "nonpayable",
      "type": "function"
    },
    {
      "inputs": [
        {
          "internalType": "uint256",
          "name": "_maxItemsPerTx",
          "type": "uint256"
        }
      ],
      "name": "setMaxMintAmount",
      "outputs": [],
      "stateMutability": "nonpayable",
      "type": "function"
    },
    {
      "inputs": [
        {
          "internalType": "string",
          "name": "_newBaseURI",
          "type": "string"
        }
      ],
      "name": "setBaseURI",
      "outputs": [],
      "stateMutability": "nonpayable",
      "type": "function"
    },
    {
      "inputs": [
        {
          "internalType": "bool",
          "name": "_state",
          "type": "bool"
        }
      ],
      "name": "pause",
      "outputs": [],
      "stateMutability": "nonpayable",
      "type": "function"
    },
    {
      "inputs": [
        {
          "internalType": "address",
          "name": "_user",
          "type": "address"
        }
      ],
      "name": "whitelistUser",
      "outputs": [],
      "stateMutability": "nonpayable",
      "type": "function"
    },
    {
      "inputs": [
        {
          "internalType": "address",
          "name": "_user",
          "type": "address"
        }
      ],
      "name": "removeWhitelistUser",
      "outputs": [],
      "stateMutability": "nonpayable",
      "type": "function"
    },
    {
      "inputs": [
        {
          "internalType": "address",
          "name": "_user",
          "type": "address"
        }
      ],
      "name": "getMintedCountByPresaledUser",
      "outputs": [
        {
          "internalType": "uint256",
          "name": "",
          "type": "uint256"
        }
      ],
      "stateMutability": "view",
      "type": "function",
      "constant": true
    },
    {
      "inputs": [
        {
          "internalType": "address",
          "name": "_user",
          "type": "address"
        },
        {
          "internalType": "uint256",
          "name": "_amount",
          "type": "uint256"
        }
      ],
      "name": "removePresaleUser",
      "outputs": [],
      "stateMutability": "nonpayable",
      "type": "function"
    },
    {
      "inputs": [],
      "name": "withdraw",
      "outputs": [],
      "stateMutability": "nonpayable",
      "type": "function"
    }
  ],
  "bytecode": "0x608060405266470de4df820000600c5567011c37937e080000600d556362586120600e5563625abdd0600f556127106010556000601155600a6012556000601360006101000a81548160ff0219169083151502179055503480156200006357600080fd5b506040518060400160405280600d81526020017f53747562626f726e2041706573000000000000000000000000000000000000008152506040518060400160405280600381526020017f41504500000000000000000000000000000000000000000000000000000000008152508160009080519060200190620000e8929190620002f7565b50806001908051906020019062000101929190620002f7565b50505062000124620001186200015460201b60201c565b6200015c60201b60201c565b6200014e60405180608001604052806050815260200162005577605091396200022260201b60201c565b6200048f565b600033905090565b6000600a60009054906101000a900473ffffffffffffffffffffffffffffffffffffffff16905081600a60006101000a81548173ffffffffffffffffffffffffffffffffffffffff021916908373ffffffffffffffffffffffffffffffffffffffff1602179055508173ffffffffffffffffffffffffffffffffffffffff168173ffffffffffffffffffffffffffffffffffffffff167f8be0079c531659141344cd1fd0a4f28419497f9722a3daafe3b4186f6b6457e060405160405180910390a35050565b620002326200015460201b60201c565b73ffffffffffffffffffffffffffffffffffffffff1662000258620002cd60201b60201c565b73ffffffffffffffffffffffffffffffffffffffff1614620002b1576040517f08c379a0000000000000000000000000000000000000000000000000000000008152600401620002a890620003ce565b60405180910390fd5b80600b9080519060200190620002c9929190620002f7565b5050565b6000600a60009054906101000a900473ffffffffffffffffffffffffffffffffffffffff16905090565b828054620003059062000401565b90600052602060002090601f01602090048101928262000329576000855562000375565b82601f106200034457805160ff191683800117855562000375565b8280016001018555821562000375579182015b828111156200037457825182559160200191906001019062000357565b5b50905062000384919062000388565b5090565b5b80821115620003a357600081600090555060010162000389565b5090565b6000620003b6602083620003f0565b9150620003c38262000466565b602082019050919050565b60006020820190508181036000830152620003e981620003a7565b9050919050565b600082825260208201905092915050565b600060028204905060018216806200041a57607f821691505b6020821081141562000431576200043062000437565b5b50919050565b7f4e487b7100000000000000000000000000000000000000000000000000000000600052602260045260246000fd5b7f4f776e61626c653a2063616c6c6572206973206e6f7420746865206f776e6572600082015250565b6150d8806200049f6000396000f3fe6080604052600436106102675760003560e01c806357d4c4ee116101445780639bb42913116100b6578063d7822c991161007a578063d7822c99146108ec578063d936547e14610917578063e3bc776214610954578063e8fee1051461097d578063e985e9c5146109a6578063f2fde38b146109e357610267565b80639bb4291314610816578063a22cb46514610853578063b88d4fde1461087c578063c87b56dd146108a5578063d2eb86ee146108e257610267565b806370a082311161010857806370a082311461071a578063715018a6146107575780638da5cb5b1461076e5780638dbb7c06146107995780638fdcf942146107c257806395d89b41146107eb57610267565b806357d4c4ee1461065257806359533d6c1461067d5780635c975abb146106875780636352211e146106b25780636c0360eb146106ef57610267565b806330b2264e116101dd578063453afb0f116101a1578063453afb0f146105445780634a4c560d1461056f5780634ea37fec146105985780634f6ccce7146105c35780634fb12c391461060057806355f804b31461062957610267565b806330b2264e1461047357806330cc7ae0146104b05780633ccfd60b146104d95780633dff9601146104f057806342842e0e1461051b57610267565b8063095ea7b31161022f578063095ea7b31461036357806318160ddd1461038c578063239c70ae146103b757806323b872dd146103e25780632a23d07d1461040b5780632f745c591461043657610267565b806301ffc9a71461026c57806302329a29146102a957806306fdde03146102d2578063081812fc146102fd578063088a4ed01461033a575b600080fd5b34801561027857600080fd5b50610293600480360381019061028e91906139b2565b610a0c565b6040516102a09190614052565b60405180910390f35b3480156102b557600080fd5b506102d060048036038101906102cb9190613985565b610a86565b005b3480156102de57600080fd5b506102e7610b1f565b6040516102f4919061406d565b60405180910390f35b34801561030957600080fd5b50610324600480360381019061031f9190613a55565b610bb1565b6040516103319190613feb565b60405180910390f35b34801561034657600080fd5b50610361600480360381019061035c9190613a55565b610c36565b005b34801561036f57600080fd5b5061038a60048036038101906103859190613945565b610cbc565b005b34801561039857600080fd5b506103a1610dd4565b6040516103ae919061446f565b60405180910390f35b3480156103c357600080fd5b506103cc610de1565b6040516103d9919061446f565b60405180910390f35b3480156103ee57600080fd5b506104096004803603810190610404919061382f565b610de7565b005b34801561041757600080fd5b50610420610e47565b60405161042d919061446f565b60405180910390f35b34801561044257600080fd5b5061045d60048036038101906104589190613945565b610e4d565b60405161046a919061446f565b60405180910390f35b34801561047f57600080fd5b5061049a600480360381019061049591906137c2565b610ef2565b6040516104a7919061446f565b60405180910390f35b3480156104bc57600080fd5b506104d760048036038101906104d291906137c2565b610f0a565b005b3480156104e557600080fd5b506104ee610fe1565b005b3480156104fc57600080fd5b50610505611113565b604051610512919061446f565b60405180910390f35b34801561052757600080fd5b50610542600480360381019061053d919061382f565b611119565b005b34801561055057600080fd5b50610559611139565b604051610566919061446f565b60405180910390f35b34801561057b57600080fd5b50610596600480360381019061059191906137c2565b61113f565b005b3480156105a457600080fd5b506105ad611216565b6040516105ba919061446f565b60405180910390f35b3480156105cf57600080fd5b506105ea60048036038101906105e59190613a55565b61121c565b6040516105f7919061446f565b60405180910390f35b34801561060c57600080fd5b5061062760048036038101906106229190613945565b61128d565b005b34801561063557600080fd5b50610650600480360381019061064b9190613a0c565b611351565b005b34801561065e57600080fd5b506106676113e7565b604051610674919061446f565b60405180910390f35b6106856113ed565b005b34801561069357600080fd5b5061069c611805565b6040516106a99190614052565b60405180910390f35b3480156106be57600080fd5b506106d960048036038101906106d49190613a55565b611818565b6040516106e69190613feb565b60405180910390f35b3480156106fb57600080fd5b506107046118ca565b604051610711919061406d565b60405180910390f35b34801561072657600080fd5b50610741600480360381019061073c91906137c2565b611958565b60405161074e919061446f565b60405180910390f35b34801561076357600080fd5b5061076c611a10565b005b34801561077a57600080fd5b50610783611a98565b6040516107909190613feb565b60405180910390f35b3480156107a557600080fd5b506107c060048036038101906107bb9190613a55565b611ac2565b005b3480156107ce57600080fd5b506107e960048036038101906107e49190613a55565b611b48565b005b3480156107f757600080fd5b50610800611bce565b60405161080d919061406d565b60405180910390f35b34801561082257600080fd5b5061083d600480360381019061083891906137c2565b611c60565b60405161084a919061446f565b60405180910390f35b34801561085f57600080fd5b5061087a60048036038101906108759190613905565b611ca9565b005b34801561088857600080fd5b506108a3600480360381019061089e9190613882565b611cbf565b005b3480156108b157600080fd5b506108cc60048036038101906108c79190613a55565b611d21565b6040516108d9919061406d565b60405180910390f35b6108ea611dc8565b005b3480156108f857600080fd5b50610901612075565b60405161090e919061446f565b60405180910390f35b34801561092357600080fd5b5061093e600480360381019061093991906137c2565b61207b565b60405161094b9190614052565b60405180910390f35b34801561096057600080fd5b5061097b60048036038101906109769190613a55565b61209b565b005b34801561098957600080fd5b506109a4600480360381019061099f9190613a55565b612121565b005b3480156109b257600080fd5b506109cd60048036038101906109c891906137ef565b6121a7565b6040516109da9190614052565b60405180910390f35b3480156109ef57600080fd5b50610a0a6004803603810190610a0591906137c2565b61223b565b005b60007f780e9d63000000000000000000000000000000000000000000000000000000007bffffffffffffffffffffffffffffffffffffffffffffffffffffffff1916827bffffffffffffffffffffffffffffffffffffffffffffffffffffffff19161480610a7f5750610a7e82612333565b5b9050919050565b610a8e612415565b73ffffffffffffffffffffffffffffffffffffffff16610aac611a98565b73ffffffffffffffffffffffffffffffffffffffff1614610b02576040517f08c379a0000000000000000000000000000000000000000000000000000000008152600401610af9906142cf565b60405180910390fd5b80601360006101000a81548160ff02191690831515021790555050565b606060008054610b2e906146d0565b80601f0160208091040260200160405190810160405280929190818152602001828054610b5a906146d0565b8015610ba75780601f10610b7c57610100808354040283529160200191610ba7565b820191906000526020600020905b815481529060010190602001808311610b8a57829003601f168201915b5050505050905090565b6000610bbc8261241d565b610bfb576040517f08c379a0000000000000000000000000000000000000000000000000000000008152600401610bf29061428f565b60405180910390fd5b6004600083815260200190815260200160002060009054906101000a900473ffffffffffffffffffffffffffffffffffffffff169050919050565b610c3e612415565b73ffffffffffffffffffffffffffffffffffffffff16610c5c611a98565b73ffffffffffffffffffffffffffffffffffffffff1614610cb2576040517f08c379a0000000000000000000000000000000000000000000000000000000008152600401610ca9906142cf565b60405180910390fd5b8060128190555050565b6000610cc782611818565b90508073ffffffffffffffffffffffffffffffffffffffff168373ffffffffffffffffffffffffffffffffffffffff161415610d38576040517f08c379a0000000000000000000000000000000000000000000000000000000008152600401610d2f9061436f565b60405180910390fd5b8073ffffffffffffffffffffffffffffffffffffffff16610d57612415565b73ffffffffffffffffffffffffffffffffffffffff161480610d865750610d8581610d80612415565b6121a7565b5b610dc5576040517f08c379a0000000000000000000000000000000000000000000000000000000008152600401610dbc9061420f565b60405180910390fd5b610dcf8383612489565b505050565b6000600880549050905090565b60125481565b610df8610df2612415565b82612542565b610e37576040517f08c379a0000000000000000000000000000000000000000000000000000000008152600401610e2e906143cf565b60405180910390fd5b610e42838383612620565b505050565b600c5481565b6000610e5883611958565b8210610e99576040517f08c379a0000000000000000000000000000000000000000000000000000000008152600401610e90906140cf565b60405180910390fd5b600660008473ffffffffffffffffffffffffffffffffffffffff1673ffffffffffffffffffffffffffffffffffffffff168152602001908152602001600020600083815260200190815260200160002054905092915050565b60156020528060005260406000206000915090505481565b610f12612415565b73ffffffffffffffffffffffffffffffffffffffff16610f30611a98565b73ffffffffffffffffffffffffffffffffffffffff1614610f86576040517f08c379a0000000000000000000000000000000000000000000000000000000008152600401610f7d906142cf565b60405180910390fd5b6000601460008373ffffffffffffffffffffffffffffffffffffffff1673ffffffffffffffffffffffffffffffffffffffff16815260200190815260200160002060006101000a81548160ff02191690831515021790555050565b610fe9612415565b73ffffffffffffffffffffffffffffffffffffffff16611007611a98565b73ffffffffffffffffffffffffffffffffffffffff161461105d576040517f08c379a0000000000000000000000000000000000000000000000000000000008152600401611054906142cf565b60405180910390fd5b6000611067611a98565b73ffffffffffffffffffffffffffffffffffffffff164760405161108a90613fd6565b60006040518083038185875af1925050503d80600081146110c7576040519150601f19603f3d011682016040523d82523d6000602084013e6110cc565b606091505b5050905080611110576040517f08c379a0000000000000000000000000000000000000000000000000000000008152600401611107906140af565b60405180910390fd5b50565b60115481565b61113483838360405180602001604052806000815250611cbf565b505050565b600d5481565b611147612415565b73ffffffffffffffffffffffffffffffffffffffff16611165611a98565b73ffffffffffffffffffffffffffffffffffffffff16146111bb576040517f08c379a00000000000000000000000000000000000000000000000000000000081526004016111b2906142cf565b60405180910390fd5b6001601460008373ffffffffffffffffffffffffffffffffffffffff1673ffffffffffffffffffffffffffffffffffffffff16815260200190815260200160002060006101000a81548160ff02191690831515021790555050565b600e5481565b6000611226610dd4565b8210611267576040517f08c379a000000000000000000000000000000000000000000000000000000000815260040161125e906143ef565b60405180910390fd5b6008828154811061127b5761127a614869565b5b90600052602060002001549050919050565b611295612415565b73ffffffffffffffffffffffffffffffffffffffff166112b3611a98565b73ffffffffffffffffffffffffffffffffffffffff1614611309576040517f08c379a0000000000000000000000000000000000000000000000000000000008152600401611300906142cf565b60405180910390fd5b80601560008473ffffffffffffffffffffffffffffffffffffffff1673ffffffffffffffffffffffffffffffffffffffff168152602001908152602001600020819055505050565b611359612415565b73ffffffffffffffffffffffffffffffffffffffff16611377611a98565b73ffffffffffffffffffffffffffffffffffffffff16146113cd576040517f08c379a00000000000000000000000000000000000000000000000000000000081526004016113c4906142cf565b60405180910390fd5b80600b90805190602001906113e39291906135d6565b5050565b60105481565b601360009054906101000a900460ff161561143d576040517f08c379a00000000000000000000000000000000000000000000000000000000081526004016114349061416f565b60405180910390fd5b600e54421015611482576040517f08c379a00000000000000000000000000000000000000000000000000000000081526004016114799061408f565b60405180910390fd5b600f544211156114c7576040517f08c379a00000000000000000000000000000000000000000000000000000000081526004016114be9061430f565b60405180910390fd5b6000600c54346114d7919061477c565b90506000600c54346114e991906145b5565b90506000821461152e576040517f08c379a0000000000000000000000000000000000000000000000000000000008152600401611525906142af565b60405180910390fd5b6010546115468260115461287c90919063ffffffff16565b1115611587576040517f08c379a000000000000000000000000000000000000000000000000000000000815260040161157e906143af565b60405180910390fd5b6012548111156115cc576040517f08c379a00000000000000000000000000000000000000000000000000000000081526004016115c39061414f565b60405180910390fd5b60011515601460003373ffffffffffffffffffffffffffffffffffffffff1673ffffffffffffffffffffffffffffffffffffffff16815260200190815260200160002060009054906101000a900460ff1615151461165f576040517f08c379a00000000000000000000000000000000000000000000000000000000081526004016116569061444f565b60405180910390fd5b600a601560003373ffffffffffffffffffffffffffffffffffffffff1673ffffffffffffffffffffffffffffffffffffffff1681526020019081526020016000205411156116e2576040517f08c379a00000000000000000000000000000000000000000000000000000000081526004016116d99061438f565b60405180910390fd5b6116ea611a98565b73ffffffffffffffffffffffffffffffffffffffff163373ffffffffffffffffffffffffffffffffffffffff16146118015760005b818110156117ab57600060115490506010546011541115611775576040517f08c379a000000000000000000000000000000000000000000000000000000000815260040161176c9061442f565b60405180910390fd5b61177f3382612892565b6011600081548092919061179290614733565b91905055505080806117a390614733565b91505061171f565b506118003382601560003373ffffffffffffffffffffffffffffffffffffffff1673ffffffffffffffffffffffffffffffffffffffff168152602001908152602001600020546117fb919061455f565b6128b0565b5b5050565b601360009054906101000a900460ff1681565b6000806002600084815260200190815260200160002060009054906101000a900473ffffffffffffffffffffffffffffffffffffffff169050600073ffffffffffffffffffffffffffffffffffffffff168173ffffffffffffffffffffffffffffffffffffffff1614156118c1576040517f08c379a00000000000000000000000000000000000000000000000000000000081526004016118b89061424f565b60405180910390fd5b80915050919050565b600b80546118d7906146d0565b80601f0160208091040260200160405190810160405280929190818152602001828054611903906146d0565b80156119505780601f1061192557610100808354040283529160200191611950565b820191906000526020600020905b81548152906001019060200180831161193357829003601f168201915b505050505081565b60008073ffffffffffffffffffffffffffffffffffffffff168273ffffffffffffffffffffffffffffffffffffffff1614156119c9576040517f08c379a00000000000000000000000000000000000000000000000000000000081526004016119c09061422f565b60405180910390fd5b600360008373ffffffffffffffffffffffffffffffffffffffff1673ffffffffffffffffffffffffffffffffffffffff168152602001908152602001600020549050919050565b611a18612415565b73ffffffffffffffffffffffffffffffffffffffff16611a36611a98565b73ffffffffffffffffffffffffffffffffffffffff1614611a8c576040517f08c379a0000000000000000000000000000000000000000000000000000000008152600401611a83906142cf565b60405180910390fd5b611a9660006128f8565b565b6000600a60009054906101000a900473ffffffffffffffffffffffffffffffffffffffff16905090565b611aca612415565b73ffffffffffffffffffffffffffffffffffffffff16611ae8611a98565b73ffffffffffffffffffffffffffffffffffffffff1614611b3e576040517f08c379a0000000000000000000000000000000000000000000000000000000008152600401611b35906142cf565b60405180910390fd5b80600d8190555050565b611b50612415565b73ffffffffffffffffffffffffffffffffffffffff16611b6e611a98565b73ffffffffffffffffffffffffffffffffffffffff1614611bc4576040517f08c379a0000000000000000000000000000000000000000000000000000000008152600401611bbb906142cf565b60405180910390fd5b80600c8190555050565b606060018054611bdd906146d0565b80601f0160208091040260200160405190810160405280929190818152602001828054611c09906146d0565b8015611c565780601f10611c2b57610100808354040283529160200191611c56565b820191906000526020600020905b815481529060010190602001808311611c3957829003601f168201915b5050505050905090565b6000601560008373ffffffffffffffffffffffffffffffffffffffff1673ffffffffffffffffffffffffffffffffffffffff168152602001908152602001600020549050919050565b611cbb611cb4612415565b83836129be565b5050565b611cd0611cca612415565b83612542565b611d0f576040517f08c379a0000000000000000000000000000000000000000000000000000000008152600401611d06906143cf565b60405180910390fd5b611d1b84848484612b2b565b50505050565b6060611d2c8261241d565b611d6b576040517f08c379a0000000000000000000000000000000000000000000000000000000008152600401611d629061432f565b60405180910390fd5b6000611d75612b87565b90506000815111611d955760405180602001604052806000815250611dc0565b80611d9f84612c19565b604051602001611db0929190613fb2565b6040516020818303038152906040525b915050919050565b601360009054906101000a900460ff1615611e18576040517f08c379a0000000000000000000000000000000000000000000000000000000008152600401611e0f9061440f565b60405180910390fd5b600f54421015611e5d576040517f08c379a0000000000000000000000000000000000000000000000000000000008152600401611e549061434f565b60405180910390fd5b6000600d5434611e6d919061477c565b90506000600d5434611e7f91906145b5565b905060008214611ec4576040517f08c379a0000000000000000000000000000000000000000000000000000000008152600401611ebb906142af565b60405180910390fd5b601054611edc8260115461287c90919063ffffffff16565b1115611f1d576040517f08c379a0000000000000000000000000000000000000000000000000000000008152600401611f14906141cf565b60405180910390fd5b601254811115611f62576040517f08c379a0000000000000000000000000000000000000000000000000000000008152600401611f599061414f565b60405180910390fd5b611f6a611a98565b73ffffffffffffffffffffffffffffffffffffffff163373ffffffffffffffffffffffffffffffffffffffff16146120715760005b8181101561206f57600060115490506010546011541115611ff5576040517f08c379a0000000000000000000000000000000000000000000000000000000008152600401611fec9061442f565b60405180910390fd5b611fff3382612892565b803373ffffffffffffffffffffffffffffffffffffffff167f239739eec2dbaccb604ff1de6462a5eccd5f3148924696dd88f04d636ff582b560405160405180910390a36011600081548092919061205690614733565b919050555050808061206790614733565b915050611f9f565b505b5050565b600f5481565b60146020528060005260406000206000915054906101000a900460ff1681565b6120a3612415565b73ffffffffffffffffffffffffffffffffffffffff166120c1611a98565b73ffffffffffffffffffffffffffffffffffffffff1614612117576040517f08c379a000000000000000000000000000000000000000000000000000000000815260040161210e906142cf565b60405180910390fd5b80600e8190555050565b612129612415565b73ffffffffffffffffffffffffffffffffffffffff16612147611a98565b73ffffffffffffffffffffffffffffffffffffffff161461219d576040517f08c379a0000000000000000000000000000000000000000000000000000000008152600401612194906142cf565b60405180910390fd5b80600f8190555050565b6000600560008473ffffffffffffffffffffffffffffffffffffffff1673ffffffffffffffffffffffffffffffffffffffff16815260200190815260200160002060008373ffffffffffffffffffffffffffffffffffffffff1673ffffffffffffffffffffffffffffffffffffffff16815260200190815260200160002060009054906101000a900460ff16905092915050565b612243612415565b73ffffffffffffffffffffffffffffffffffffffff16612261611a98565b73ffffffffffffffffffffffffffffffffffffffff16146122b7576040517f08c379a00000000000000000000000000000000000000000000000000000000081526004016122ae906142cf565b60405180910390fd5b600073ffffffffffffffffffffffffffffffffffffffff168173ffffffffffffffffffffffffffffffffffffffff161415612327576040517f08c379a000000000000000000000000000000000000000000000000000000000815260040161231e9061410f565b60405180910390fd5b612330816128f8565b50565b60007f80ac58cd000000000000000000000000000000000000000000000000000000007bffffffffffffffffffffffffffffffffffffffffffffffffffffffff1916827bffffffffffffffffffffffffffffffffffffffffffffffffffffffff191614806123fe57507f5b5e139f000000000000000000000000000000000000000000000000000000007bffffffffffffffffffffffffffffffffffffffffffffffffffffffff1916827bffffffffffffffffffffffffffffffffffffffffffffffffffffffff1916145b8061240e575061240d82612d7a565b5b9050919050565b600033905090565b60008073ffffffffffffffffffffffffffffffffffffffff166002600084815260200190815260200160002060009054906101000a900473ffffffffffffffffffffffffffffffffffffffff1673ffffffffffffffffffffffffffffffffffffffff1614159050919050565b816004600083815260200190815260200160002060006101000a81548173ffffffffffffffffffffffffffffffffffffffff021916908373ffffffffffffffffffffffffffffffffffffffff160217905550808273ffffffffffffffffffffffffffffffffffffffff166124fc83611818565b73ffffffffffffffffffffffffffffffffffffffff167f8c5be1e5ebec7d5bd14f71427d1e84f3dd0314c0f7b2291e5b200ac8c7c3b92560405160405180910390a45050565b600061254d8261241d565b61258c576040517f08c379a0000000000000000000000000000000000000000000000000000000008152600401612583906141ef565b60405180910390fd5b600061259783611818565b90508073ffffffffffffffffffffffffffffffffffffffff168473ffffffffffffffffffffffffffffffffffffffff16148061260657508373ffffffffffffffffffffffffffffffffffffffff166125ee84610bb1565b73ffffffffffffffffffffffffffffffffffffffff16145b80612617575061261681856121a7565b5b91505092915050565b8273ffffffffffffffffffffffffffffffffffffffff1661264082611818565b73ffffffffffffffffffffffffffffffffffffffff1614612696576040517f08c379a000000000000000000000000000000000000000000000000000000000815260040161268d906142ef565b60405180910390fd5b600073ffffffffffffffffffffffffffffffffffffffff168273ffffffffffffffffffffffffffffffffffffffff161415612706576040517f08c379a00000000000000000000000000000000000000000000000000000000081526004016126fd9061418f565b60405180910390fd5b612711838383612de4565b61271c600082612489565b6001600360008573ffffffffffffffffffffffffffffffffffffffff1673ffffffffffffffffffffffffffffffffffffffff168152602001908152602001600020600082825461276c91906145e6565b925050819055506001600360008473ffffffffffffffffffffffffffffffffffffffff1673ffffffffffffffffffffffffffffffffffffffff16815260200190815260200160002060008282546127c3919061455f565b92505081905550816002600083815260200190815260200160002060006101000a81548173ffffffffffffffffffffffffffffffffffffffff021916908373ffffffffffffffffffffffffffffffffffffffff160217905550808273ffffffffffffffffffffffffffffffffffffffff168473ffffffffffffffffffffffffffffffffffffffff167fddf252ad1be2c89b69c2b068fc378daa952ba7f163c4a11628f55a4df523b3ef60405160405180910390a4505050565b6000818361288a919061455f565b905092915050565b6128ac828260405180602001604052806000815250612ef8565b5050565b80601560008473ffffffffffffffffffffffffffffffffffffffff1673ffffffffffffffffffffffffffffffffffffffff168152602001908152602001600020819055505050565b6000600a60009054906101000a900473ffffffffffffffffffffffffffffffffffffffff16905081600a60006101000a81548173ffffffffffffffffffffffffffffffffffffffff021916908373ffffffffffffffffffffffffffffffffffffffff1602179055508173ffffffffffffffffffffffffffffffffffffffff168173ffffffffffffffffffffffffffffffffffffffff167f8be0079c531659141344cd1fd0a4f28419497f9722a3daafe3b4186f6b6457e060405160405180910390a35050565b8173ffffffffffffffffffffffffffffffffffffffff168373ffffffffffffffffffffffffffffffffffffffff161415612a2d576040517f08c379a0000000000000000000000000000000000000000000000000000000008152600401612a24906141af565b60405180910390fd5b80600560008573ffffffffffffffffffffffffffffffffffffffff1673ffffffffffffffffffffffffffffffffffffffff16815260200190815260200160002060008473ffffffffffffffffffffffffffffffffffffffff1673ffffffffffffffffffffffffffffffffffffffff16815260200190815260200160002060006101000a81548160ff0219169083151502179055508173ffffffffffffffffffffffffffffffffffffffff168373ffffffffffffffffffffffffffffffffffffffff167f17307eab39ab6107e8899845ad3d59bd9653f200f220920489ca2b5937696c3183604051612b1e9190614052565b60405180910390a3505050565b612b36848484612620565b612b4284848484612f53565b612b81576040517f08c379a0000000000000000000000000000000000000000000000000000000008152600401612b78906140ef565b60405180910390fd5b50505050565b6060600b8054612b96906146d0565b80601f0160208091040260200160405190810160405280929190818152602001828054612bc2906146d0565b8015612c0f5780601f10612be457610100808354040283529160200191612c0f565b820191906000526020600020905b815481529060010190602001808311612bf257829003601f168201915b5050505050905090565b60606000821415612c61576040518060400160405280600181526020017f30000000000000000000000000000000000000000000000000000000000000008152509050612d75565b600082905060005b60008214612c93578080612c7c90614733565b915050600a82612c8c91906145b5565b9150612c69565b60008167ffffffffffffffff811115612caf57612cae614898565b5b6040519080825280601f01601f191660200182016040528015612ce15781602001600182028036833780820191505090505b5090505b60008514612d6e57600182612cfa91906145e6565b9150600a85612d09919061477c565b6030612d15919061455f565b60f81b818381518110612d2b57612d2a614869565b5b60200101907effffffffffffffffffffffffffffffffffffffffffffffffffffffffffffff1916908160001a905350600a85612d6791906145b5565b9450612ce5565b8093505050505b919050565b60007f01ffc9a7000000000000000000000000000000000000000000000000000000007bffffffffffffffffffffffffffffffffffffffffffffffffffffffff1916827bffffffffffffffffffffffffffffffffffffffffffffffffffffffff1916149050919050565b612def8383836130ea565b600073ffffffffffffffffffffffffffffffffffffffff168373ffffffffffffffffffffffffffffffffffffffff161415612e3257612e2d816130ef565b612e71565b8173ffffffffffffffffffffffffffffffffffffffff168373ffffffffffffffffffffffffffffffffffffffff1614612e7057612e6f8382613138565b5b5b600073ffffffffffffffffffffffffffffffffffffffff168273ffffffffffffffffffffffffffffffffffffffff161415612eb457612eaf816132a5565b612ef3565b8273ffffffffffffffffffffffffffffffffffffffff168273ffffffffffffffffffffffffffffffffffffffff1614612ef257612ef18282613376565b5b5b505050565b612f0283836133f5565b612f0f6000848484612f53565b612f4e576040517f08c379a0000000000000000000000000000000000000000000000000000000008152600401612f45906140ef565b60405180910390fd5b505050565b6000612f748473ffffffffffffffffffffffffffffffffffffffff166135c3565b156130dd578373ffffffffffffffffffffffffffffffffffffffff1663150b7a02612f9d612415565b8786866040518563ffffffff1660e01b8152600401612fbf9493929190614006565b602060405180830381600087803b158015612fd957600080fd5b505af192505050801561300a57506040513d601f19601f8201168201806040525081019061300791906139df565b60015b61308d573d806000811461303a576040519150601f19603f3d011682016040523d82523d6000602084013e61303f565b606091505b50600081511415613085576040517f08c379a000000000000000000000000000000000000000000000000000000000815260040161307c906140ef565b60405180910390fd5b805181602001fd5b63150b7a0260e01b7bffffffffffffffffffffffffffffffffffffffffffffffffffffffff1916817bffffffffffffffffffffffffffffffffffffffffffffffffffffffff1916149150506130e2565b600190505b949350505050565b505050565b6008805490506009600083815260200190815260200160002081905550600881908060018154018082558091505060019003906000526020600020016000909190919091505550565b6000600161314584611958565b61314f91906145e6565b9050600060076000848152602001908152602001600020549050818114613234576000600660008673ffffffffffffffffffffffffffffffffffffffff1673ffffffffffffffffffffffffffffffffffffffff168152602001908152602001600020600084815260200190815260200160002054905080600660008773ffffffffffffffffffffffffffffffffffffffff1673ffffffffffffffffffffffffffffffffffffffff168152602001908152602001600020600084815260200190815260200160002081905550816007600083815260200190815260200160002081905550505b6007600084815260200190815260200160002060009055600660008573ffffffffffffffffffffffffffffffffffffffff1673ffffffffffffffffffffffffffffffffffffffff16815260200190815260200160002060008381526020019081526020016000206000905550505050565b600060016008805490506132b991906145e6565b90506000600960008481526020019081526020016000205490506000600883815481106132e9576132e8614869565b5b90600052602060002001549050806008838154811061330b5761330a614869565b5b90600052602060002001819055508160096000838152602001908152602001600020819055506009600085815260200190815260200160002060009055600880548061335a5761335961483a565b5b6001900381819060005260206000200160009055905550505050565b600061338183611958565b905081600660008573ffffffffffffffffffffffffffffffffffffffff1673ffffffffffffffffffffffffffffffffffffffff168152602001908152602001600020600083815260200190815260200160002081905550806007600084815260200190815260200160002081905550505050565b600073ffffffffffffffffffffffffffffffffffffffff168273ffffffffffffffffffffffffffffffffffffffff161415613465576040517f08c379a000000000000000000000000000000000000000000000000000000000815260040161345c9061426f565b60405180910390fd5b61346e8161241d565b156134ae576040517f08c379a00000000000000000000000000000000000000000000000000000000081526004016134a59061412f565b60405180910390fd5b6134ba60008383612de4565b6001600360008473ffffffffffffffffffffffffffffffffffffffff1673ffffffffffffffffffffffffffffffffffffffff168152602001908152602001600020600082825461350a919061455f565b92505081905550816002600083815260200190815260200160002060006101000a81548173ffffffffffffffffffffffffffffffffffffffff021916908373ffffffffffffffffffffffffffffffffffffffff160217905550808273ffffffffffffffffffffffffffffffffffffffff16600073ffffffffffffffffffffffffffffffffffffffff167fddf252ad1be2c89b69c2b068fc378daa952ba7f163c4a11628f55a4df523b3ef60405160405180910390a45050565b600080823b905060008111915050919050565b8280546135e2906146d0565b90600052602060002090601f016020900481019282613604576000855561364b565b82601f1061361d57805160ff191683800117855561364b565b8280016001018555821561364b579182015b8281111561364a57825182559160200191906001019061362f565b5b509050613658919061365c565b5090565b5b8082111561367557600081600090555060010161365d565b5090565b600061368c613687846144af565b61448a565b9050828152602081018484840111156136a8576136a76148cc565b5b6136b384828561468e565b509392505050565b60006136ce6136c9846144e0565b61448a565b9050828152602081018484840111156136ea576136e96148cc565b5b6136f584828561468e565b509392505050565b60008135905061370c81615046565b92915050565b6000813590506137218161505d565b92915050565b60008135905061373681615074565b92915050565b60008151905061374b81615074565b92915050565b600082601f830112613766576137656148c7565b5b8135613776848260208601613679565b91505092915050565b600082601f830112613794576137936148c7565b5b81356137a48482602086016136bb565b91505092915050565b6000813590506137bc8161508b565b92915050565b6000602082840312156137d8576137d76148d6565b5b60006137e6848285016136fd565b91505092915050565b60008060408385031215613806576138056148d6565b5b6000613814858286016136fd565b9250506020613825858286016136fd565b9150509250929050565b600080600060608486031215613848576138476148d6565b5b6000613856868287016136fd565b9350506020613867868287016136fd565b9250506040613878868287016137ad565b9150509250925092565b6000806000806080858703121561389c5761389b6148d6565b5b60006138aa878288016136fd565b94505060206138bb878288016136fd565b93505060406138cc878288016137ad565b925050606085013567ffffffffffffffff8111156138ed576138ec6148d1565b5b6138f987828801613751565b91505092959194509250565b6000806040838503121561391c5761391b6148d6565b5b600061392a858286016136fd565b925050602061393b85828601613712565b9150509250929050565b6000806040838503121561395c5761395b6148d6565b5b600061396a858286016136fd565b925050602061397b858286016137ad565b9150509250929050565b60006020828403121561399b5761399a6148d6565b5b60006139a984828501613712565b91505092915050565b6000602082840312156139c8576139c76148d6565b5b60006139d684828501613727565b91505092915050565b6000602082840312156139f5576139f46148d6565b5b6000613a038482850161373c565b91505092915050565b600060208284031215613a2257613a216148d6565b5b600082013567ffffffffffffffff811115613a4057613a3f6148d1565b5b613a4c8482850161377f565b91505092915050565b600060208284031215613a6b57613a6a6148d6565b5b6000613a79848285016137ad565b91505092915050565b613a8b8161461a565b82525050565b613a9a8161462c565b82525050565b6000613aab82614511565b613ab58185614527565b9350613ac581856020860161469d565b613ace816148db565b840191505092915050565b6000613ae48261451c565b613aee8185614543565b9350613afe81856020860161469d565b613b07816148db565b840191505092915050565b6000613b1d8261451c565b613b278185614554565b9350613b3781856020860161469d565b80840191505092915050565b6000613b50601983614543565b9150613b5b826148ec565b602082019050919050565b6000613b73601283614543565b9150613b7e82614915565b602082019050919050565b6000613b96602b83614543565b9150613ba18261493e565b604082019050919050565b6000613bb9603283614543565b9150613bc48261498d565b604082019050919050565b6000613bdc602683614543565b9150613be7826149dc565b604082019050919050565b6000613bff601c83614543565b9150613c0a82614a2b565b602082019050919050565b6000613c22601683614543565b9150613c2d82614a54565b602082019050919050565b6000613c45601383614543565b9150613c5082614a7d565b602082019050919050565b6000613c68602483614543565b9150613c7382614aa6565b604082019050919050565b6000613c8b601983614543565b9150613c9682614af5565b602082019050919050565b6000613cae603383614543565b9150613cb982614b1e565b604082019050919050565b6000613cd1602c83614543565b9150613cdc82614b6d565b604082019050919050565b6000613cf4603883614543565b9150613cff82614bbc565b604082019050919050565b6000613d17602a83614543565b9150613d2282614c0b565b604082019050919050565b6000613d3a602983614543565b9150613d4582614c5a565b604082019050919050565b6000613d5d602083614543565b9150613d6882614ca9565b602082019050919050565b6000613d80602c83614543565b9150613d8b82614cd2565b604082019050919050565b6000613da3602083614543565b9150613dae82614d21565b602082019050919050565b6000613dc6602083614543565b9150613dd182614d4a565b602082019050919050565b6000613de9602983614543565b9150613df482614d73565b604082019050919050565b6000613e0c601583614543565b9150613e1782614dc2565b602082019050919050565b6000613e2f602f83614543565b9150613e3a82614deb565b604082019050919050565b6000613e52601d83614543565b9150613e5d82614e3a565b602082019050919050565b6000613e75602183614543565b9150613e8082614e63565b604082019050919050565b6000613e98601783614543565b9150613ea382614eb2565b602082019050919050565b6000613ebb602483614543565b9150613ec682614edb565b604082019050919050565b6000613ede600083614538565b9150613ee982614f2a565b600082019050919050565b6000613f01603183614543565b9150613f0c82614f2d565b604082019050919050565b6000613f24602c83614543565b9150613f2f82614f7c565b604082019050919050565b6000613f47601283614543565b9150613f5282614fcb565b602082019050919050565b6000613f6a600f83614543565b9150613f7582614ff4565b602082019050919050565b6000613f8d601b83614543565b9150613f988261501d565b602082019050919050565b613fac81614684565b82525050565b6000613fbe8285613b12565b9150613fca8284613b12565b91508190509392505050565b6000613fe182613ed1565b9150819050919050565b60006020820190506140006000830184613a82565b92915050565b600060808201905061401b6000830187613a82565b6140286020830186613a82565b6140356040830185613fa3565b81810360608301526140478184613aa0565b905095945050505050565b60006020820190506140676000830184613a91565b92915050565b600060208201905081810360008301526140878184613ad9565b905092915050565b600060208201905081810360008301526140a881613b43565b9050919050565b600060208201905081810360008301526140c881613b66565b9050919050565b600060208201905081810360008301526140e881613b89565b9050919050565b6000602082019050818103600083015261410881613bac565b9050919050565b6000602082019050818103600083015261412881613bcf565b9050919050565b6000602082019050818103600083015261414881613bf2565b9050919050565b6000602082019050818103600083015261416881613c15565b9050919050565b6000602082019050818103600083015261418881613c38565b9050919050565b600060208201905081810360008301526141a881613c5b565b9050919050565b600060208201905081810360008301526141c881613c7e565b9050919050565b600060208201905081810360008301526141e881613ca1565b9050919050565b6000602082019050818103600083015261420881613cc4565b9050919050565b6000602082019050818103600083015261422881613ce7565b9050919050565b6000602082019050818103600083015261424881613d0a565b9050919050565b6000602082019050818103600083015261426881613d2d565b9050919050565b6000602082019050818103600083015261428881613d50565b9050919050565b600060208201905081810360008301526142a881613d73565b9050919050565b600060208201905081810360008301526142c881613d96565b9050919050565b600060208201905081810360008301526142e881613db9565b9050919050565b6000602082019050818103600083015261430881613ddc565b9050919050565b6000602082019050818103600083015261432881613dff565b9050919050565b6000602082019050818103600083015261434881613e22565b9050919050565b6000602082019050818103600083015261436881613e45565b9050919050565b6000602082019050818103600083015261438881613e68565b9050919050565b600060208201905081810360008301526143a881613e8b565b9050919050565b600060208201905081810360008301526143c881613eae565b9050919050565b600060208201905081810360008301526143e881613ef4565b9050919050565b6000602082019050818103600083015261440881613f17565b9050919050565b6000602082019050818103600083015261442881613f3a565b9050919050565b6000602082019050818103600083015261444881613f5d565b9050919050565b6000602082019050818103600083015261446881613f80565b9050919050565b60006020820190506144846000830184613fa3565b92915050565b60006144946144a5565b90506144a08282614702565b919050565b6000604051905090565b600067ffffffffffffffff8211156144ca576144c9614898565b5b6144d3826148db565b9050602081019050919050565b600067ffffffffffffffff8211156144fb576144fa614898565b5b614504826148db565b9050602081019050919050565b600081519050919050565b600081519050919050565b600082825260208201905092915050565b600081905092915050565b600082825260208201905092915050565b600081905092915050565b600061456a82614684565b915061457583614684565b9250827fffffffffffffffffffffffffffffffffffffffffffffffffffffffffffffffff038211156145aa576145a96147ad565b5b828201905092915050565b60006145c082614684565b91506145cb83614684565b9250826145db576145da6147dc565b5b828204905092915050565b60006145f182614684565b91506145fc83614684565b92508282101561460f5761460e6147ad565b5b828203905092915050565b600061462582614664565b9050919050565b60008115159050919050565b60007fffffffff0000000000000000000000000000000000000000000000000000000082169050919050565b600073ffffffffffffffffffffffffffffffffffffffff82169050919050565b6000819050919050565b82818337600083830152505050565b60005b838110156146bb5780820151818401526020810190506146a0565b838111156146ca576000848401525b50505050565b600060028204905060018216806146e857607f821691505b602082108114156146fc576146fb61480b565b5b50919050565b61470b826148db565b810181811067ffffffffffffffff8211171561472a57614729614898565b5b80604052505050565b600061473e82614684565b91507fffffffffffffffffffffffffffffffffffffffffffffffffffffffffffffffff821415614771576147706147ad565b5b600182019050919050565b600061478782614684565b915061479283614684565b9250826147a2576147a16147dc565b5b828206905092915050565b7f4e487b7100000000000000000000000000000000000000000000000000000000600052601160045260246000fd5b7f4e487b7100000000000000000000000000000000000000000000000000000000600052601260045260246000fd5b7f4e487b7100000000000000000000000000000000000000000000000000000000600052602260045260246000fd5b7f4e487b7100000000000000000000000000000000000000000000000000000000600052603160045260246000fd5b7f4e487b7100000000000000000000000000000000000000000000000000000000600052603260045260246000fd5b7f4e487b7100000000000000000000000000000000000000000000000000000000600052604160045260246000fd5b600080fd5b600080fd5b600080fd5b600080fd5b6000601f19601f8301169050919050565b7f50726573616c65206973206e6f74206f70656e65642079657400000000000000600082015250565b7f4661696c656420746f2077697468647261770000000000000000000000000000600082015250565b7f455243373231456e756d657261626c653a206f776e657220696e646578206f7560008201527f74206f6620626f756e6473000000000000000000000000000000000000000000602082015250565b7f4552433732313a207472616e7366657220746f206e6f6e20455243373231526560008201527f63656976657220696d706c656d656e7465720000000000000000000000000000602082015250565b7f4f776e61626c653a206e6577206f776e657220697320746865207a65726f206160008201527f6464726573730000000000000000000000000000000000000000000000000000602082015250565b7f4552433732313a20746f6b656e20616c7265616479206d696e74656400000000600082015250565b7f4f76657220746865206d61784d696e74416d6f756e7400000000000000000000600082015250565b7f436f6e7472616374206973207061757365642100000000000000000000000000600082015250565b7f4552433732313a207472616e7366657220746f20746865207a65726f2061646460008201527f7265737300000000000000000000000000000000000000000000000000000000602082015250565b7f4552433732313a20617070726f766520746f2063616c6c657200000000000000600082015250565b7f507572636861736520776f756c6420206e6f7420657863656564206d6178207360008201527f7570706c79206f66204261736963204170657300000000000000000000000000602082015250565b7f4552433732313a206f70657261746f7220717565727920666f72206e6f6e657860008201527f697374656e7420746f6b656e0000000000000000000000000000000000000000602082015250565b7f4552433732313a20617070726f76652063616c6c6572206973206e6f74206f7760008201527f6e6572206e6f7220617070726f76656420666f7220616c6c0000000000000000602082015250565b7f4552433732313a2062616c616e636520717565727920666f7220746865207a6560008201527f726f206164647265737300000000000000000000000000000000000000000000602082015250565b7f4552433732313a206f776e657220717565727920666f72206e6f6e657869737460008201527f656e7420746f6b656e0000000000000000000000000000000000000000000000602082015250565b7f4552433732313a206d696e7420746f20746865207a65726f2061646472657373600082015250565b7f4552433732313a20617070726f76656420717565727920666f72206e6f6e657860008201527f697374656e7420746f6b656e0000000000000000000000000000000000000000602082015250565b7f53656e64206120646976697369626c6520616d6f756e74206f66207072696365600082015250565b7f4f776e61626c653a2063616c6c6572206973206e6f7420746865206f776e6572600082015250565b7f4552433732313a207472616e73666572206f6620746f6b656e2074686174206960008201527f73206e6f74206f776e0000000000000000000000000000000000000000000000602082015250565b7f4e6f7420696e2070726573616c6520706572696f640000000000000000000000600082015250565b7f4552433732314d657461646174613a2055524920717565727920666f72206e6f60008201527f6e6578697374656e7420746f6b656e0000000000000000000000000000000000602082015250565b7f5075626c69632073616c65206973206e6f74206f70656e656420796574000000600082015250565b7f4552433732313a20617070726f76616c20746f2063757272656e74206f776e6560008201527f7200000000000000000000000000000000000000000000000000000000000000602082015250565b7f4d6178203130206974656d73207065722077616c6c6574000000000000000000600082015250565b7f507572636861736520776f756c64206e6f7420657863656564206d617820737560008201527f70706c7900000000000000000000000000000000000000000000000000000000602082015250565b50565b7f4552433732313a207472616e736665722063616c6c6572206973206e6f74206f60008201527f776e6572206e6f7220617070726f766564000000000000000000000000000000602082015250565b7f455243373231456e756d657261626c653a20676c6f62616c20696e646578206f60008201527f7574206f6620626f756e64730000000000000000000000000000000000000000602082015250565b7f436f6e7472616374206973207061757365640000000000000000000000000000600082015250565b7f416c6c206974656d7320736f6c64210000000000000000000000000000000000600082015250565b7f596f75206e65656420746f20626520696e2077686974656c6973740000000000600082015250565b61504f8161461a565b811461505a57600080fd5b50565b6150668161462c565b811461507157600080fd5b50565b61507d81614638565b811461508857600080fd5b50565b61509481614684565b811461509f57600080fd5b5056fea26469706673582212208bee2c517a279dd5df9690a5627f896512b7147a727259742d077d965e13dadf64736f6c6343000806003368747470733a2f2f676174657761792e70696e6174612e636c6f75642f697066732f516d575955644477766d326454704e5255316b627948697a566d5a7967396547705739573531486254774432584b",
  "immutableReferences": {},
  "source": "// SPDX-License-Identifier: MIT\r\npragma solidity ^0.8.6;\r\n\r\nimport \"@openzeppelin/contracts/token/ERC721/extensions/ERC721Enumerable.sol\";\r\nimport \"@openzeppelin/contracts/access/Ownable.sol\";\r\nimport \"@openzeppelin/contracts/utils/math/SafeMath.sol\";\r\n\r\ncontract StubbornApe is ERC721Enumerable, Ownable {\r\n    using Strings for uint256;\r\n    using SafeMath for uint256;\r\n\r\n    string public baseURI;\r\n\r\n    // Costs ====================================\r\n    uint256 public presaleCost = 0.02 ether;\r\n    uint256 public publicSaleCost = 0.08 ether;\r\n\r\n    // Sale dates ===============================\r\n    uint public presaleStartTimestamp = 1649959200; // 14 April 2022 5 PM EST\r\n    uint public publicSaleStartTimestamp = 1650114000; // 16 April 2022 12 PM EST\r\n\r\n    // Count values =============================\r\n    uint256 public MAX_ITEMS = 10000;\r\n    uint256 public _mintedItems = 0;\r\n    uint256 public maxMintAmount = 10; // Max items per tx\r\n\r\n    bool public paused = false;\r\n\r\n    // Lists ====================================\r\n    mapping(address => bool) public whitelisted;\r\n    mapping(address => uint) public presaleWallets;\r\n\r\n    // Events ===================================\r\n    event PublicSaleMint(\r\n        address indexed _from,\r\n        uint indexed _tokenId\r\n    );\r\n\r\n    constructor(\r\n    ) ERC721('Stubborn Apes', 'APE') {\r\n        setBaseURI(\"https://gateway.pinata.cloud/ipfs/QmWYUdDwvm2dTpNRU1kbyHizVmZyg9eGpW9W51HbTwD2XK\");\r\n    }\r\n\r\n    function _baseURI() internal view virtual override returns (string memory) {\r\n        return baseURI;\r\n    }\r\n\r\n    // Presale Minting ============================\r\n     function presaleMint() public payable {\r\n        require(!paused, \"Contract is paused!\");\r\n        require(block.timestamp >= presaleStartTimestamp, \"Presale is not opened yet\");\r\n        require(block.timestamp <= publicSaleStartTimestamp, \"Not in presale period\");\r\n        uint remainder = msg.value % presaleCost;\r\n        uint _mintAmount = msg.value / presaleCost;\r\n        require(remainder == 0, \"Send a divisible amount of price\");\r\n        require(_mintedItems.add(_mintAmount) <= MAX_ITEMS, \"Purchase would not exceed max supply\");\r\n        require(_mintAmount <= maxMintAmount, \"Over the maxMintAmount\");\r\n        require(whitelisted[msg.sender] == true, \"You need to be in whitelist\");\r\n        require(presaleWallets[msg.sender] <= 10, \"Max 10 items per wallet\");\r\n\r\n        if (msg.sender != owner()) {\r\n            for (uint i = 0; i < _mintAmount; i++) {\r\n                uint mintIndex = _mintedItems;\r\n                require(_mintedItems <= MAX_ITEMS, \"All items sold!\");\r\n                _safeMint(msg.sender, mintIndex);\r\n                _mintedItems++;\r\n            }\r\n            presaleUser(msg.sender, presaleWallets[msg.sender] + _mintAmount);\r\n        }\r\n    }\r\n\r\n    // Public sale Minting =================================\r\n     function publicSaleMint() public payable {\r\n        require(!paused, \"Contract is paused\");\r\n        require(block.timestamp >= publicSaleStartTimestamp, \"Public sale is not opened yet\");\r\n        uint remainder = msg.value % publicSaleCost;\r\n        uint _mintAmount = msg.value / publicSaleCost;\r\n        require(remainder == 0, \"Send a divisible amount of price\");\r\n        require(_mintedItems.add(_mintAmount) <= MAX_ITEMS, \"Purchase would  not exceed max supply of Basic Apes\");\r\n        require(_mintAmount <= maxMintAmount, \"Over the maxMintAmount\");\r\n\r\n        if (msg.sender != owner()) {\r\n            for (uint i = 0; i < _mintAmount; i++) {\r\n                uint mintIndex = _mintedItems;\r\n                require(_mintedItems <= MAX_ITEMS, \"All items sold!\");\r\n                _safeMint(msg.sender, mintIndex);\r\n                emit PublicSaleMint(msg.sender, mintIndex);\r\n                _mintedItems++;\r\n            }}\r\n    }\r\n\r\n\r\n    // Get MetaData TokenURI =======================\r\n    function tokenURI(uint256 tokenId)\r\n    public\r\n    view\r\n    virtual\r\n    override\r\n    returns (string memory)\r\n    {\r\n        require(\r\n            _exists(tokenId),\r\n            \"ERC721Metadata: URI query for nonexistent token\"\r\n        );\r\n        string memory currentBaseURI = _baseURI();\r\n        return bytes(currentBaseURI).length > 0\r\n        ? string(abi.encodePacked(currentBaseURI, tokenId.toString()))\r\n        : \"\";\r\n    }\r\n\r\n\r\n    function setPresaleStartTimestamp(uint _startTimestamp) external onlyOwner {\r\n        presaleStartTimestamp = _startTimestamp;\r\n    }\r\n\r\n    function setPublicSaleStartTimestamp(uint _startTimestamp) external onlyOwner {\r\n        publicSaleStartTimestamp = _startTimestamp;\r\n    }\r\n\r\n    function setPresaleCost(uint256 _newCost) public onlyOwner {\r\n        presaleCost = _newCost;\r\n    }\r\n\r\n    function setPublicSaleCost(uint256 _newCost) public onlyOwner {\r\n        publicSaleCost = _newCost;\r\n    }\r\n\r\n    function setMaxMintAmount(uint256 _maxItemsPerTx) public onlyOwner {\r\n        maxMintAmount = _maxItemsPerTx;\r\n    }\r\n\r\n    function setBaseURI(string memory _newBaseURI) public onlyOwner {\r\n        baseURI = _newBaseURI;\r\n    }\r\n\r\n    function pause(bool _state) public onlyOwner {\r\n        paused = _state;\r\n    }\r\n\r\n    function whitelistUser(address _user) public onlyOwner {\r\n        whitelisted[_user] = true;\r\n    }\r\n\r\n    function removeWhitelistUser(address _user) public onlyOwner {\r\n        whitelisted[_user] = false;\r\n    }\r\n\r\n    function presaleUser(address _user, uint _amount) internal {\r\n        presaleWallets[_user] = _amount;\r\n    }\r\n\r\n    function getMintedCountByPresaledUser(address _user) public view virtual returns (uint) {\r\n        return presaleWallets[_user];\r\n    }\r\n\r\n    function removePresaleUser(address _user, uint _amount) external onlyOwner {\r\n        presaleWallets[_user] = _amount;\r\n    }\r\n\r\n    function withdraw() external onlyOwner {\r\n        (bool success,) = owner().call{value : address(this).balance}(\"\");\r\n        require(success, \"Failed to withdraw\");\r\n    } \r\n\r\n\r\n}",
  "sourcePath": "D:\\Shah Faisal\\Projects\\stubborn-apes\\contracts\\StubbornApe.sol",
  "compiler": {
    "name": "solc",
    "version": "0.8.6+commit.11564f7e.Emscripten.clang"
  },
  "schemaVersion": "3.4.4",
  "updatedAt": "2022-02-10T12:36:57.827Z",
  "networkType": "ethereum",
  "devdoc": {
    "kind": "dev",
    "methods": {
      "approve(address,uint256)": {
        "details": "See {IERC721-approve}."
      },
      "balanceOf(address)": {
        "details": "See {IERC721-balanceOf}."
      },
      "getApproved(uint256)": {
        "details": "See {IERC721-getApproved}."
      },
      "isApprovedForAll(address,address)": {
        "details": "See {IERC721-isApprovedForAll}."
      },
      "name()": {
        "details": "See {IERC721Metadata-name}."
      },
      "owner()": {
        "details": "Returns the address of the current owner."
      },
      "ownerOf(uint256)": {
        "details": "See {IERC721-ownerOf}."
      },
      "renounceOwnership()": {
        "details": "Leaves the contract without owner. It will not be possible to call `onlyOwner` functions anymore. Can only be called by the current owner. NOTE: Renouncing ownership will leave the contract without an owner, thereby removing any functionality that is only available to the owner."
      },
      "safeTransferFrom(address,address,uint256)": {
        "details": "See {IERC721-safeTransferFrom}."
      },
      "safeTransferFrom(address,address,uint256,bytes)": {
        "details": "See {IERC721-safeTransferFrom}."
      },
      "setApprovalForAll(address,bool)": {
        "details": "See {IERC721-setApprovalForAll}."
      },
      "supportsInterface(bytes4)": {
        "details": "See {IERC165-supportsInterface}."
      },
      "symbol()": {
        "details": "See {IERC721Metadata-symbol}."
      },
      "tokenByIndex(uint256)": {
        "details": "See {IERC721Enumerable-tokenByIndex}."
      },
      "tokenOfOwnerByIndex(address,uint256)": {
        "details": "See {IERC721Enumerable-tokenOfOwnerByIndex}."
      },
      "tokenURI(uint256)": {
        "details": "See {IERC721Metadata-tokenURI}."
      },
      "totalSupply()": {
        "details": "See {IERC721Enumerable-totalSupply}."
      },
      "transferFrom(address,address,uint256)": {
        "details": "See {IERC721-transferFrom}."
      },
      "transferOwnership(address)": {
        "details": "Transfers ownership of the contract to a new account (`newOwner`). Can only be called by the current owner."
      }
    },
    "version": 1
  },
  "userdoc": {
    "kind": "user",
    "methods": {},
    "version": 1
  }
}